:020000040800F2
:10000000B0380020CD020008073400086B3100082A
:1000100005340008A91E0008E13E000800000000A9
:100020000000000000000000000000003502000891
:10003000DB1E00080000000079020008C73D000830
:10004000E7020008E7020008E7020008E7020008EC
:10005000E7020008E7020008E7020008E7020008DC
:10006000E7020008E7020008E7020008E7020008CC
:10007000E7020008E7020008E7020008E7020008BC
:10008000E7020008E7020008211D0008E702000857
:10009000E7020008E7020008E7020008E70200089C
:1000A000E70200085D3E0008E7020008E7020008DA
:1000B000E7020008E7020008E7020008E70200087C
:1000C000E7020008E7020008E7020008E70200086C
:1000D000E7020008E7020008E7020008E70200085C
:1000E000E7020008E7020008E702000800F002F853
:1000F00000F090F80AA090E8000C82448344AAF132
:100100000107DA4501D100F085F8AFF2090EBAE82F
:100110000F0013F0010F18BFFB1A43F0010318473B
:10012000486E0000686E0000103A24BF78C878C19D
:10013000FAD8520724BF30C830C144BF04680C60ED
:10014000704700000023002400250026103A28BF35
:1001500078C1FBD8520728BF30C148BF0B60704739
:100160006E2900F03B82702900F07D83662905F03E
:100170008385652905F08085672905F07D856129DE
:1001800005F07C8503681B0A28BF41F080016929BE
:1001900000F0E881642900F0E581752900F0E28132
:1001A0006F2900F00A83782900F04983E92900F0DB
:1001B000A582E42900F0A282F52900F09F82EF29B0
:1001C00000F00783F82900F048830368DB0928BFA3
:1001D00041F08001632901F09F80732901F0A48020
:1001E000E32901F0AF80F32901F0B48000207047CB
:1001F0001FB501F005F904000020002105F026FDDF
:10020000401C60600020002105F00AFDE0601FBD79
:1002100010B510BD01F0C6F81146FFF7E9FF03F075
:100220008BFE01F0A3F903B4FFF7F2FF03BC01F06A
:10023000A7F90000224B19680868B0E8F00F80F3B6
:100240000988BFF36F8F4FF0000080F311884EF0E4
:100250000D0E70470000000006480068006880F33B
:10026000088862B661B6BFF34F8FBFF36F8F00DFB0
:1002700000BF00BF08ED00E0EFF30980BFF36F8F10
:100280000F4B1A6820E9F00F106008B54FF05000CE
:1002900080F31188BFF34F8FBFF36F8F04F03CFEE4
:1002A0004FF0000080F31188BDE808401968086825
:1002B000B0E8F00F80F30988BFF36F8F704700BF7D
:1002C00010000020EFF305807047000009488047C8
:1002D00009480047FEE7FEE7FEE7FEE7FEE7FEE728
:1002E000FEE7FEE7FEE7FEE704480549054A064B40
:1002F00070470000593E0008ED000008B0320020B1
:10030000B0380020B0340020B03400201CB50C46BA
:10031000064B7B4469460090204600F078F904467D
:100320000020694600F086F920461CBD1F0300002E
:10033000032A40F2308010F0030C00F0158011F811
:10034000013BBCF1020F624498BF11F801CB00F8E9
:10035000013B38BF11F8013BA2F1040298BF00F83D
:1003600001CB38BF00F8013B11F0030300F04A83D2
:10037000083AC0F0088051F8043B083A51F804CB21
:10038000A0E80810F5E7121D5CBF51F8043B40F8E7
:10039000043BAFF30080D20724BF11F8013B11F8F2
:1003A00001CB48BF11F8012B24BF00F8013B00F836
:1003B00001CB48BF00F8012B704702F0FF0343EA6E
:1003C000032242EA024200F051BB4FF0000200B5A6
:1003D000134694469646203922BFA0E80C50A0E868
:1003E0000C50B1F12001BFF4F7AF090728BFA0E816
:1003F0000C5048BF0CC05DF804EB890028BF40F8E2
:10040000042B08BF704748BF20F8022B11F0804F23
:1004100018BF00F8012B70474FF0013C50F8042B37
:1004200051F8043B9A4221D1A2EB0C03934313EA07
:10043000CC1317D150F8042B51F8043B9A4215D134
:10044000A2EB0C03934313EACC130BD150F8042B0B
:1004500051F8043B9A4209D1A2EB0C03934313EAEF
:10046000CC13DBD04FF00000704700BFD01A01BAA8
:10047000B1FA81F101F0180122FA01F0CB40C1F18B
:100480002001DBB2C0B2C01A2CFA01F3D11A914399
:1004900011EAC311E6D1704770477047704770B5D5
:1004A000044685690068C10601D5302600E0202693
:1004B000C00707D070BDD4E9012130469047206ABB
:1004C000401C20626D1EF6D570BD70B5044685696E
:1004D0000078C00707D170BDD4E9012120209047E2
:1004E000206A401C20626D1EF6D570BD09684A0561
:1004F00001D540B27047C905FCD500B27047096804
:100500004A0501D5C0B27047C905FCD580B2704715
:1005100070B50C460546012A05D02878800600D51E
:10052000EA69002302E0012305E05B1C934202D24A
:10053000E05C0028F9D1A869E618C01AA861286A09
:10054000184428622846FFF7AAFF04E0D5E90121F4
:1005500014F8010B9047B442F8D32846FFF7B5FFD3
:1005600070BD00002DE9F041064600241068752991
:10057000314616A510D0FFF7B9FF002802DA404235
:1005800013A507E031688A0701D512A502E04907E3
:1005900004D511A5012401E0FFF7B1FF00210A22D3
:1005A00006F1240709E0B0FBF2FCB0FBF2F302FB1A
:1005B0001C00303078541846491C0028F3D12346DB
:1005C0002A463046BDE8F04100F0B5BA0000000010
:1005D0002D0000002B0000002000000011680268C0
:1005E000006A530501D508700AE0D30501D50880DB
:1005F00006E0130603D5C217C1E9000200E0086057
:100600000120704701694A1C02610878704700B5F3
:100610008FB0CDE901310021059105497944CDE93B
:1006200003101146684600F029F90FB000BD000024
:10063000E5FFFFFF0A6802F8010B0A60704700003F
:100640002DE9FF5F15468A460446DFF8AC80F84482
:100650000027D8E900103E46CDE9001010E03AF836
:1006600016106A4602A800F079FE411C07D02178D6
:10067000890603D5E269391891420DD80744761CE2
:100680002078800602D5E069B84205DDAE42E6DB9F
:100690003AF816000028E2D1A069C01BA0612046EC
:1006A000FFF7FDFED8E90010CDE90010002017E0AB
:1006B0003AF818106A4602A800F050FEB0F1FF3F69
:1006C00081460BD000250DF1080B05E0D4E901218E
:1006D0001BF8050090476D1C4D45F7D308F101004C
:1006E000B0428046E4DB206A384420622046FFF7AF
:1006F000ECFEBDE8FF9F0000E26700002DE9F0413D
:100700008046D21D22F007020025D2E90002F52919
:1007100015A614D0011E72F1000106DA0023D0EBF9
:10072000030063EB020211A608E0D8F800108B0763
:1007300001D50FA602E0490701D50EA601251146F5
:10074000002408F1240704E000F0B0F930323A55F3
:10075000641C50EA0102F7D12B463246214640463E
:10076000BDE8F04100F0E7B9000000002D000000F6
:100770002B0000002000000030B4002100F1240410
:1007800008E002F00705D208303542EA4372DB0880
:100790006554491C52EA0305F3D10468002310A2F2
:1007A000250707D5A40600D421B1C46901230DA2F1
:1007B000641EC46130BC00F0BEB910B504462146C9
:1007C0001068FFF79CFE02462046BDE8104000235B
:1007D000D2E7D21D22F00701D1E90023CCE70000C7
:1007E0000000000030000000F0B40D46018809054B
:1007F00002D5214C7C4402E01F4C7C440E34002185
:1008000000F1240608E002F00F071209E75D42EA52
:1008100003721B097754491C52EA0307F3D102788B
:100820000023120704D5702D06D009B1022311341C
:100830002246F0BC00F07FB901231034F8E770B510
:1008400004460D4621461068FFF759FE0246294628
:100850002046BDE870400023C6E7D21D22F0070302
:10086000D3E90023C0E70368126843F02003036064
:100870000823C3610023B7E7446600002DE9F05F59
:10088000894604464FF0000ADFF874B1FB44C0F813
:1008900020A02046E1688847002874D0252806D08B
:1008A000D4E901219047206A401C2062F1E700262C
:1008B0005F462046E16888472028054607DB312D42
:1008C00005D2781910F8200C08B10643F1E7B007FB
:1008D00001D526F00406C4F81CA00027C4F818A00F
:1008E0002A2D09D0284603F020FB38B304EB8708F3
:1008F000303DC8F8185019E059F8041B204604EBA5
:1009000087029161E1688847012F054618D1E069A7
:10091000002820DA26F020061DE0D8F8180000EBA9
:10092000800005EB40003038C8F818002046E16828
:100930008847054603F0F9FA0028EED1012F0AD0C6
:100940002E2D08D12046E16888477F1C0546022FDE
:1009500046F02006C4DBA069002803DA404246F0D6
:100960000106A061F00701D026F010066C2D0BD017
:10097000682D09D04C2D39D06A2D35D0742D35D045
:100980007A2D33D016E038E0E1682F4620468847BC
:10099000B842054609D16C2F26D04FF48060E1683B
:1009A000064320468847054604E06C2F1AD04FF4D2
:1009B000807006430DB3A5F14100192802D82035F7
:1009C00046F400664A462946204626604E46FFF712
:1009D000C7FB80B101280BD0F61D26F0070000F1FF
:1009E000080956E74020E4E78020D8E70020D6E752
:1009F00006F104094DE7284652E7206ABDE8F09F5A
:100A0000D465000010B5203AC0F00B80B1E8185052
:100A1000203AA0E81850B1E81850A0E81850BFF4E8
:100A2000F5AF5FEA027C24BFB1E81850A0E8185087
:100A300044BF18C918C0BDE810405FEA827C24BFDB
:100A400051F8043B40F8043B08BF7047D20728BF69
:100A500031F8023B48BF11F8012B28BF20F8023BB8
:100A600048BF00F8012B70474FF000020429C0F086
:100A7000128010F0030C3FF4AAACCCF1040CBCF1D2
:100A8000020F18BF00F8012BA8BF20F8022BA1EB22
:100A90000C01FFF79CBC5FEAC17C24BF00F8012B6E
:100AA00000F8012B48BF00F8012B704730B5B0F1BA
:100AB0000A024FEA900E71F100034EEA817EB0EB1C
:100AC0000E0061EB91014FEA101E4EEA017E10EB21
:100AD0000E0041EB11114FEA102E4EEA016E10EBA1
:100AE0000E0041EB11214FEA104E4EEA014E10EB81
:100AF0000E0041EB1141401841F100014FEAD000D6
:100B000040EA41704FEAD10110EB80054FEA8104C1
:100B100044EA907444EB01046D1944EB0404521B45
:100B2000A3414FF0000348BF0A3200D530BD401C3E
:100B300041F1000130BD2DE9F0470D46994692463E
:100B4000044600F124080168880604D5E06921F014
:100B50001001216000E00120A84201DD471B00E0F8
:100B60000027A1697A1902EB0900081AA061207810
:100B7000C00602D42046FFF792FC002608E0D4E924
:100B800001211AF806009047206A401C761C20625A
:100B90004E45F4DB2078C0060AD52046FFF77FFCDF
:100BA00006E0D4E9012130209047206A401C2062F1
:100BB000381EA7F10107F4DC07E0D4E9012118F899
:100BC00005009047206A401C2062281EA5F10105FF
:100BD000F3DC2046FFF779FC2078000602D50220DE
:100BE000BDE8F0870120FBE770472DE9FF4F0C4679
:100BF0001E464FF0FF378BB0D2E90001DDF8608070
:100C00000A908A46C1F30A5505B93D4600210846B7
:100C10004FF00000BAF1000F00F4400005DA00EBDD
:100C200080004FF4400101EA50004FEA9059B9F1B9
:100C3000010F00DDB9460A9850EA4A000ED044F68A
:100C40001050A5F2FF3545432F14B8F1000F1ED008
:100C50007542291E1EDDC9F100021CE0B8F1010F2A
:100C60004FF0000001D0302103E0F24305E02154B1
:100C7000401CB042FBDB30460022002121540B997E
:100C8000C1F80880C1E900200FB0BDE8F08FBD1B9E
:100C90006D1CDEE74A4600DA694206A800F0F4FB64
:100CA00006AB93E8070003AB83E8070050460A99B8
:100CB00000F06DFC8DE80700A0F500501F38009093
:100CC0000398002D0ADD42F21F014A460844002322
:100CD00003A90390684600F0D6FE09E0A0F5005095
:100CE0004A461F38002303A90390684600F0E0FE3F
:100CF0008DE807000004000C03D04FF0FF304108DE
:100D000000E01046B8F1000F03D000220092154613
:100D10001EE0751E05D4FFF7C9FE303262556D1E08
:100D2000F9D5B3460122084302D000227F1C04E01B
:100D30002078302801D100227F1E002A099784D014
:100D40001DE0112D07DAFFF7B1FE303262556D1C40
:100D500050EA0102F5D1084302D00098C8B10EE074
:100D60000021681E05E0235C625C63542254401E2F
:100D7000491C8142F7DBAB46A81B401E09900020AE
:100D800004F80B000B98099AC0F80880C0E9002B02
:100D90007AE711264FF0000857E72DE9F04F884613
:100DA0000446D21D22F0070191B0D1E90001CDE93E
:100DB0000A0103F096F802460B98C00F01D02D20CF
:100DC00007E02068810701D52B2002E0202101EAFD
:100DD000C000032A099001D0072A05DB03464146DB
:100DE000204600F011FB0BE12078800601D5E06978
:100DF00000E00620B8F1650F814606D0B8F1660F15
:100E000018D0B8F1670F70D131E00020B9F1110F9F
:100E1000009001DB112301E009F101030AAA01A9F5
:100E20000CA8FFF7E2FEDDE90C70002609F10105D0
:100E3000834647E001204B4600904FF000470AAA46
:100E400001A90CA8FFF7D1FEDDE90DB00C995D46B4
:100E5000002610B909F101000D18B9EB050003D403
:100E6000C0F1FF3609F10105A5EB09002BE0B9F14E
:100E7000010F01DA4FF001090020B9F1110F0090C4
:100E8000484601DD112300E003460AAA01A90CA887
:100E9000FFF7ABFEDDE90C704D4600268346207857
:100EA00000070AD4AB4500DA5D4601A8012D04DD38
:100EB000411911F8011C302907D04F4502DA17F10A
:100EC000040F04DA012082460FE06D1EEEE7002FCA
:100ED00002DCED1B3E4403E0781CA84200DD7D1CD3
:100EE000B81B00F1010A4FF000472078000703D437
:100EF000AA4501DB4FF0FF3A0021B7F1004F0DF199
:100F000043088DF8431024D002202B23002F01DA50
:100F10007F422D230A21021EA0F1010000DC5FB1F7
:100F200097FBF1FC97FBF1F201FB1C7C17460CF1DF
:100F3000300C08F801CDEEE7A8F10100037021881C
:100F4000090501D5452100E06521A0F1010800F85F
:100F5000011C09980FA9A1EB0807FF1D00B1012092
:100F6000411901EBEA70A1693844081A401EA061DA
:100F70002078C00602D42046FFF791FA099828B1DC
:100F8000D4E901219047206A401C20622078C006E5
:100F900022D52046FFF783FA1EE0002E04DBB3457E
:100FA00002DD01A8805D00E03020D4E901219047F6
:100FB000206A401C2062761CAAF101005FEA000A48
:100FC0000AD100F01DFAC0680168405CD4E9012133
:100FD0009047206A401C2062281EA5F10105DCDC38
:100FE00007E0D4E9012118F8010B9047206A401C62
:100FF0002062381EA7F10107F3DC2046FFF765FAEF
:10100000032011B041E600002DE9F04F04460D46E3
:10101000D21D22F0070089B0D0E900974846394632
:1010200002F05FFF0246F80F01D02D2307E0206891
:10103000810701D52B2302E0202101EAC0038DF8AE
:1010400020300BB1012000E00020032A824601D0AD
:10105000072A04DB2946204600F0D6F93FE1207834
:10106000800601D40D2500E0E569C7F30A560D2D71
:1010700049DA00214FEA175B08464FF00000002FC5
:1010800000F4400007DA00EB80004FF4400100EB71
:10109000D07001EA60008115012901DD4FF0FF31B8
:1010A00000224FEA850CBCF1180F06D31346ACF1B1
:1010B00018004FF08052C24003E04FF4801323FA2F
:1010C0000CF30CF10C0CBCF1200F04D3ACF1200C90
:1010D00009FA0CF001E007FA0CF000294FF0004883
:1010E00001DD18B90FE00ED140450CD319EB020910
:1010F0005F4121B9404502D19F4329EA0209BBEB78
:10110000175F00D0761C2088000502D57B48784404
:1011100002E07A487844193808AA302302F80A30E5
:10112000037C0AF10101002E0AF1020A53546A46B7
:1011300002DC4FF0300101E04FF031014FF00108C7
:101140008DF8001002D0A6F2FF3603E059EA4701FD
:1011500000D06B4E002D02DC2178090704D54FF03A
:1011600002082E218DF80110C44600210BE0C7F3C0
:1011700003433F01C35C491C6D1E02F8083005297A
:1011800008F1010801DA002DF1DC00210CE000EB90
:101190001973491C1B786D1E082902F808304FEAA4
:1011A000091908F1010801DA002DF0DC21688B062D
:1011B00002D516E0A8F10108E04505DD02EB0803C1
:1011C00013F8013C302BF5D0B8F1000F09DD02EB2C
:1011D000080313F8013C2E2B03D1090701D4A8F111
:1011E0000108002D05DD3E2102F808106D1E08F1F2
:1011F0000108407C002E02F8080008F1010804DA1A
:101200002D20764202F8080002E02B2002F80800A8
:101210000A214FF47A70864208F101080BDB96FB35
:10122000F0F3303302F8083096FBF0F308F10108D0
:1012300000FB136601E0642E0CDB642096FBF0F3E8
:10124000303302F8083096FBF0F308F1010800FB98
:10125000136601E00A2E06DB96FBF1F0303002F84F
:10126000080008F1010896FBF1F001FB1060303036
:1012700002F80800A16908F1010808EB050202EB79
:101280000A00081AA0612078C00602D42046FFF7A1
:1012900006F9216A08AE01EB0A00206204E0D4E9F5
:1012A000012116F8010B9047BAF1010AF7D2207814
:1012B000C00602D52046FFF7F2F86E4609E016F8A0
:1012C000010B3E280FD0D4E901219047206A401C31
:1012D0002062B8F10108F2D22046FFF7F6F809B013
:1012E0000320BDE8F08F206A2844206203E0D4E99F
:1012F0000121302090476D1EEBD3F8E7765D0000AA
:1013000002FCFFFF10B5436913B1AFF3008001E0A9
:10131000FFF7FEF8012010BD127800F124010A70D9
:1013200000224A700122EDE711684FF0FF32E9E731
:1013300010B5436913B1AFF3008001E0FFF780F906
:10134000012010BD128800F1240182840022C28491
:101350000122EDE711684FF0FF32E9E770B516465C
:101360000C46054600F044F8036893F80101012893
:1013700006D0FF2C0FD8185D68B101202C7070BD0D
:10138000D3F807013246214603F2071303442846E7
:10139000BDE8704018474FF0FF3070BD00487047FF
:1013A000503200207546FFF7F9FFAE46050069464A
:1013B000534620F00700854618B020B5FEF794FF8D
:1013C000BDE820404FF000064FF000074FF0000846
:1013D0004FF0000B21F00701AC46ACE8C009ACE8C7
:1013E000C009ACE8C009ACE8C0098D4670470000F0
:1013F00010B500F005F8001D10BD00BF51480000F9
:1014000000487047703200202DE9F0411F46044625
:1014100003260168072A01F4006004DB08B116A561
:1014200005E016A503E008B115A500E015A521F01B
:1014300010002060A069C01EA0610FB1401EA06115
:101440002046FFF72CF84FB1D4E9012138469047E8
:10145000206A401C2062C01C206206E0206AFAE775
:10146000D4E9012115F8010B9047761EF8D22046E9
:10147000FFF72BF8BDE8F0814E414E006E616E0023
:10148000494E4600696E66002DE9F04781461646D2
:101490008AB0354878440DC88DE80D00324878444C
:1014A000801C03AC0DC884E80D0041F69B30084455
:1014B000372190FBF1F290FBF1F5A5F1800501FBDE
:1014C00012041B3C02D56442012000E00020DFF83A
:1014D00098A080460027FA44AAF1BE0A0EE0E00771
:1014E0000AD03246684607EB470101230AEB810127
:1014F00000F0DEFA8DE8070064107F1C002CEED1AE
:10150000194F7F44AE3F19E0E80715D007EB0410F0
:101510000DF1180A90E80E008AE80E00C068F0424B
:1015200001D1981908903246012306A903A800F0BA
:10153000BFFA03AB83E807006D10641C002DE3D1F4
:101540004FF0010332466946B8F1000F03A802D0FC
:1015500000F099FA01E000F0ABFAC9E90001C9F81E
:1015600008200AB0BDE8F087805A000010B5044694
:10157000AFF300802046BDE81040FEF754BE0000E7
:1015800001491820ABBEFEE72600020070475FEA63
:10159000400C08BF91F0000F4FEA8C234FEAC122A4
:1015A00043EA51514FEA1C5018BF00F5F0404FEA92
:1015B000300018BF41F000415FEA6C5C00F0298008
:1015C000BCF1FF3F08BF40F080407047130C06BFDE
:1015D00012044FF0100C4FF0000C130E04BF120257
:1015E0000CF1080C130F04BF12010CF1040C930F43
:1015F00004BF92000CF1020CD30F04BF52000CF197
:10160000010C11464FF00002A0F11F00A0EB0C00EE
:10161000704711F0004F08BF704731F000413FF4B0
:10162000D5AF0B0C06BF09044FF0100C4FF0000CA7
:101630000B0E04BF09020CF1080C0B0F04BF0901CB
:101640000CF1040C8B0F04BF89000CF1020CCB0FC2
:1016500004BF49000CF1010CCCF12003A0EB0C00FD
:1016600022FA03F302FA0CF241EA030100F101004D
:10167000704720F07F4C80EA030023F07F47ACEBFB
:10168000070303F57C5300F0004003F1FF032DE94D
:1016900080494FEA154B09B44FEA144325EA0B4E33
:1016A00024EA03480FF2042606EB132749083E7884
:1016B0005FEA320203FB0667C7F5000707FB06F681
:1016C0004FEA54374FEAD64606F1020607FB066C8E
:1016D000CCF1005C4FEA1C472CEA074C07FB06F4F0
:1016E0000CFB06F504EB15464FEA961634BF0020B6
:1016F0004FF000404FEAD13706FB07FC4FEA1C4C85
:101700000CFB0BF7D21B03FB0CF761EB07010CFB87
:101710000EF7B0EB074072EB17420CFB08F734BF33
:10172000A2EB0742B2EB074261EB17414FEA0C44D0
:101730004FEA910706FB07FC4FEA1C4C0CFB0BF72A
:10174000B0EBC74072EB573203FB0CF734BFA2EB90
:10175000C742B2EBC74261EB57310CFB0EF7B0EB5F
:10176000C70072EB57720CFB08F734BFA2EBC7023D
:10177000B2EBC70261EB5771039F4FEA816141EA07
:10178000921104EBCC044FEAD1374FEA826206FB98
:1017900007FC42EA90124FEA80604FEA1C4C0CFBB7
:1017A0000BF7D21B03FB0CF761EB07010CFB0EF7E9
:1017B000B0EB074072EB17420CFB08F734BFA2EB0B
:1017C0000742B2EB074261EB17414FEA8C554FEAF3
:1017D000910704EB9C2406FB07FC4FEA1C4C0CFB16
:1017E0000BF7B0EBC74072EB573203FB0CF734BF7B
:1017F000A2EBC742B2EBC74261EB57310CFB0EF7CD
:10180000B0EBC70072EB57720CFB08F734BFA2EBCA
:10181000C702B2EBC70261EB577115EB4C254FEADB
:10182000816141EA92114FEA82624FEAD13742EA7E
:10183000901206FB07FC44F100044FEA80604FEA77
:101840001C4C0CFB0BF7D21B03FB0CF761EB0701E5
:101850000CFB0EF7B0EB074072EB17420CFB08F7DE
:1018600034BFA2EB0742B2EB074261EB174115EB25
:101870001C154FEA813141EA92414FEA823242EA35
:1018800090424FEA80304FEA0C7644F1000448EA77
:1018900003434EEA0B484FF0000EB2EB080C71EB1D
:1018A000030724BF624639464EEB0E0E4FF0000B85
:1018B0000018524149414BEB0B0BB2EB080C71EB9A
:1018C00003077BF1000B24BF624639464EEB0E0E38
:1018D0004FF0000B0018524149414BEB0B0BB2EBA0
:1018E000080C71EB03077BF1000B24BF62463946FD
:1018F0004EEB0E0E51EA020718BF46F0010616EB3A
:101900000E7655F1000254F1000103D5BDE88901BE
:10191000BDE80088BDE88901BDE80048B61952411C
:1019200041EB0101A3F10103704780807F7E7D7C44
:101930007B7A7978777676757473727171706F6E61
:101940006E6D6C6C6B6A6A6968686766666564640C
:10195000636362616160605F5F5E5E5D5D5C5C5B96
:101960005B5A5A5959585857575656555555545405
:10197000535352525251515050504F4F4F4E4E4D63
:101980004D4D4C4C4C4B4B4B4A4A4A4949494848AF
:1019900048474747474646464545454444444443EF
:1019A00043434342424242414141002B9C4630D492
:1019B00077002BD01CB54FEA370703B44FF0100067
:1019C0004FF01001BAF1000F06D0BCF1000FDCBFE0
:1019D00040F0080040F008014FF000000FBCBDE8E7
:1019E00010400BF1010BBBF1010F08BF5FEA1707B5
:1019F00022BF12F1010211F101014FF0004143F148
:101A0000000300F0004043EA00007047F9D3570894
:101A1000D0E746EA064613F1400F4FEA16461FDDAF
:101A200013F1200FDFBF16430A46002120335B422B
:101A3000BED0C3F1200746EA064602FA07F74FEA8E
:101A4000164646EA0706C3F1200722FA03F201FA16
:101A500007F721FA03F14FF0000342EA0702A7E774
:101A600046EA020646EA06464FEA164646EA0106F6
:101A7000BCBF46EA0646360C4FF000034FF00002AA
:101A80004FF0000194E72DE9804C9A46934670B4DC
:101A900091E8380007C831EA400C48BF34EA430CEB
:101AA00003D5FFF7E6FDFFF780FFF0BCBDE8008C33
:101AB0002DE9804C9A46934670B491E8380007C8E7
:101AC00010F0804F08BF13F0804F03D100F005F8ED
:101AD000FFF76BFFF0BCBDE8008C20F07F4780EA89
:101AE000030023F07F4C07EB0C03A3F57C5300F0BD
:101AF0000040A3F1FE0392F0000F00F0B38095F0D8
:101B0000000F00F077802DE901494FEA11404FEABC
:101B1000144621EA004800FB06FC24EA064708FBBD
:101B200006F607FB08F800FB07F718EB06484CEB36
:101B3000164C4FEA124B18EB07484FEA15464CEB90
:101B4000174022EA0B4E0BFB06FC25EA06470EFB6C
:101B500006F607FB0EFE0BFB07F71EEB064E4CEBE3
:101B6000164C4FF000061EEB074E4CEB174B18EBD4
:101B70000B0840F1000018EB0E0B58EB000840F189
:101B800000008F1A4FF000013CBFC943661B14BF11
:101B9000B5EB040C00213CBFC943F61B4FEA1744C8
:101BA0004EEA8E0E27EA04454FEA1C4704FB076203
:101BB0002CEA074C05FB07F70CFB05F604FB0CFCB5
:101BC00016EB074642EB174216EB0C4642EB1C4263
:101BD0001BEB060658EB0202414146EA9E0601D580
:101BE000BDE80189B619524141EB0101A3F101039E
:101BF000BDE801894FEA14454FEA114724EA05463A
:101C000021EA074C05FB07F406FB07F70CFB06F17E
:101C100005FB0CFC11EB074144EB17444FEA12475C
:101C200011EB0C4144EB1C4422EA074C05FB07F284
:101C300006FB07F70CFB06F605FB0CFC16EB07464C
:101C400042EB174216EB0C4642EB1C456A1854F166
:101C5000000148BF7047B619524141EB0101A3F1A1
:101C60000103704795F0000F37D04FEA11424FEA59
:101C7000144721EA024624EA074C02FB07F106FB5F
:101C800007F70CFB06F402FB0CFC14EB074441EBDA
:101C900017414FEA154714EB0C4441EB1C4125EA70
:101CA000074C02FB07F506FB07F70CFB06F602FBE9
:101CB0000CFC16EB074645EB174516EB0C4645EBBF
:101CC0001C42121951F1000148BF7047B619524128
:101CD00041EB0101A3F1010370474FEA14454FEABC
:101CE000114724EA054621EA074C05FB07F106FBEC
:101CF00007F70CFB06F24FF0000605FB0CFC12EB9D
:101D0000074241EB174112EB0C4251EB1C4148BF1B
:101D10007047921841EB0101A3F1010370470000E5
:101D2000014800F0CDB90000982D002070B50446A0
:101D300000688168C943C90717D1816821F0010192
:101D4000816000F001FD05460AE000BF00F0FCFCE8
:101D5000401B022804D920688068C043C00706D011
:101D600020688068C043C007F0D0002070BDA06A22
:101D700040F01000A062E06A40F00100E062012043
:101D800070BD0000F8B50026044600960068816822
:101D9000C943C9072DD0816841F00101816016480F
:101DA00016490068B0FBF1F000E0401E00900028EA
:101DB000FBD100F0C9FC054616E000BF00F0C4FCF2
:101DC000401B022810D920688068C043C0070BD090
:101DD000A06A40F01000A062E06A40F00100E062FA
:101DE00084F824600120F8BD20688068C043C007E3
:101DF000E4D10020F8BD00000C00002040420F009C
:101E000002F0DFF8134C05460A35284602F0C2F806
:101E1000002000F021F82080012000F01DF86080F3
:101E2000022000F019F8A080032000F015F8E080EF
:101E3000208800F03AF82081608800F036F8608150
:101E4000A08800F032F8A081E08800F02EF8E08150
:101E5000DAE70000900000203EB5002100910191DA
:101E60000C46029103280DD8009001200190052016
:101E7000029069460B4800F0A1F818B9094800F033
:101E8000EFFA08B100203EBD0521064800F04AFAED
:101E900018B9044800F011F984B2024800F040FB80
:101EA00020463EBD982D0020FEE7A0F50060642886
:101EB00005DD65216438484340F29B7107E010F16D
:101EC000640F08DA65216430484340F29C7190FB4E
:101ED000F1F000B2704700207047704772B6FEE71D
:101EE000F8B500250446009590F8240001280BD091
:101EF000012084F824002046FFF718FF2046FFF752
:101F000041FF060002D050E00220F8BDA06A20F494
:101F1000885040F00200A062022000F0DFFC25495A
:101F20000968B1FBF0F0400000E0401E009000287E
:101F3000FBD12068816841F00801816000F004FC59
:101F4000074608E000F000FCC01B0A2803D92068FF
:101F50008068000715D4206880680007F2D42068E4
:101F6000816841F00401816000F0EEFB074612E059
:101F700000F0EAFBC01B0A280DD9206880684007E2
:101F800009D5A06A20F0020040F01000A06284F899
:101F900024500120F8BD206880684007E8D4A06A7A
:101FA00020F0020040F00100A06284F82450304686
:101FB000F8BD00000C00002070470000F8B50024B8
:101FC000009490F824202546012A12D0012280F89E
:101FD00024204A681F23072A0DD20668776B521EF9
:101FE00002EB820293409F430B6893401F43776349
:101FF00019E00220F8BD06680D2A0AD2376BD21FFD
:1020000002EB820293409F430B6893401F43376368
:1020100009E0F76A0D3A02EB820293409F430B6896
:1020200093401F43F7620A68072306680A2A0AD307
:10203000F7680A3A02EB420293409F438B68934051
:102040001F43F76008E0376902EB420293409F4369
:102050008B6893401F4337610A68102A01D0112A08
:1020600020D1124B02689A4217D193681B0219D4EF
:10207000936843F4000393600968102912D10C4956
:102080000C4A0968B1FBF2F101EB8101490000E063
:10209000491E00910029FBD104E0816A41F0200132
:1020A0008162012480F824502046F8BD00240140BC
:1020B0000C00002040420F0070470068C06C704761
:1020C00070B50446006806684568A90625D5B107BD
:1020D00023D5A16AC90603D4A16A41F40071A162A3
:1020E0008168C1F34241072910D1217B71B9416850
:1020F00021F020014160A06A20F48070A062A06AF3
:10210000C00403D4A06A40F00100A0622046FFF79B
:10211000D3FF21686FF01200086028062ED57007E3
:102120002CD5A06AC00603D4A06A40F40050A06277
:1021300020688168C1F30231072909D04168490547
:1021400015D48168C1F34241072910D1217B71B9AF
:10215000416821F080014160A06A20F48050A062B3
:10216000A06AC00503D4A06A40F00100A062204626
:10217000FFF722FF21686FF00C00086068060CD59D
:10218000F0070AD0A06A40F48030A062204600F038
:1021900093F821686FF00100086070BD2DE9F041EF
:1021A0004FF0000704003D467ED0A06A002628B903
:1021B000E66284F82460204600F080F82046FFF7AD
:1021C000B5FDA16AC90600D420B1A06A40F0100094
:1021D000A06269E0A16A21F4885141F00201A16284
:1021E0006268E169237B0A4347EA43010A43A16825
:1021F0004FF48077B94209D0012907D05FF0000180
:1022000094F814C0BCF1010F02D00AE03946F7E798
:10221000F3B1A36A43F02003A362E36A43F001032E
:10222000E3622368D3F804C02CF4694C4CEA010C37
:10223000C3F804C021688B68DFF870C003EA0C03A0
:1022400013438B60A168B9420BD0012909D00CE07F
:10225000DFF85CC0A3690CEB43330B4343F400612C
:10226000DFE7218A0D05A5F580152168CB6A23F4E7
:1022700070032B43CB62216889680E4B1940914251
:1022800008D1E662A16A21F0020141F00101A162D8
:10229000BDE8F081A06A20F0020040F01000A062CA
:1022A000E06A40F00100E0620120F1E7FDF7E1FFA4
:1022B00000E0FFFFFE0E1FFF7047000000B585B075
:1022C0000021009101910291039100681249884216
:1022D00020D11248816941F400718161816901F462
:1022E00000710491816941F004018161806969464E
:1022F00000F0040004900F20009003200190084893
:1023000000F028F900220521122000F0B5FA122071
:1023100000F0A4FA05B000BD002401400010024006
:10232000000801402DE9F84300270D4604460097B8
:1023300000F00AFA804620688168C90508D5A06ABD
:1023400040F02000A06284F824700120BDE8F883EA
:102350004168C90503D4C06A10F4700F2AD0022066
:1023600000F0BCFA3B490968B1FBF0F6206803694C
:1023700039490B424FEA61014FEAA1121FD1C368EC
:102380004FEA611C13EA0C0F19D103690B4225D1E6
:10239000C068104222D1142023E0681C0AD02DB15D
:1023A00000F0D2F9A0EB0800A84203D92068006829
:1023B000800725D5206800688007EED52DE00369E9
:1023C0000B4202D1C168114206D0026923490A4278
:1023D00006D1C068084203D1542002E0292000E061
:1023E000FC204643009816E0681C11D02DB100F087
:1023F000ABF9A0EB0800A8420AD90098B04207D276
:10240000A06A40F00400A06284F8247003209DE7D5
:102410000098401C0090B042E6D321686FF0120093
:102420000860A06A40F40070A06220688068C0F371
:10243000424007280CD1207B50B9A06A20F480705C
:10244000A062A06AC00403D4A06A40F00100A062A8
:1024500000207BE70C0000202449922449922400AC
:1024600070B5044690F8240001280DD0012084F8AE
:1024700024002046FFF786FC02004FF0000005D044
:1024800084F82400104670BD022070BDA16A40F29D
:102490000123994341F48071A1621F4D23681F49B4
:1024A000AB4218D10E6816F4702F14D0A66A46F409
:1024B0008016A6620E68760505D5A66A26F4005633
:1024C00046F48056A662A66AF6040AD5E66A26F0A5
:1024D0000606E66206E0A66A26F48016A6625E6834
:1024E000E9E7E06284F824006FF0020018602068D9
:1024F0008368C3F34243072B05D1A84208D109687A
:1025000011F4702F04D0816841F480118160B9E723
:10251000816841F4A001F9E700280140042401404A
:1025200010B5044690F82400012807D0012084F853
:1025300024002046FFF7FAFB10B107E0022010BD8F
:10254000A16A21F4885141F00101A162002184F8BF
:10255000241010BD2DE9F84FDFF8B8910024A9F13F
:10256000040B23460F2709F1040AABF1040EC9E05E
:102570000125A5402A40AA427DD1674ED1F804C06A
:10258000ACEB0608B44532D014DCBCF1030F3AD0F2
:1025900009DCBCF1000F2AD0BCF1010F1CD0BCF14A
:1025A000020F31D11DE0BCF1110F17D0BCF1120F99
:1025B0002AD119E0B8F5881F19D006DCB8F5803F9C
:1025C00015D0B8F5801F1FD111E0B8F5001F0ED04F
:1025D000B8F5041F18D10AE0CB6815E0CB681B1DC5
:1025E00012E0CB6808330FE0CB680C330CE08B684B
:1025F0002BB1012B4FF0080303D0456104E0042305
:1026000002E0056100E00023FF2A01D8064601E050
:1026100000F104064FEA840501D9A5F12005D6F89A
:10262000008007FA05FC28EA0C0803FA05F548EAD9
:102630000508C6F800804D68ED0062D5374DAE69DB
:1026400046F00106AE61AD6924F0030605F0010510
:102650000095334D06EB050CDCF80850A607360F45
:1026600007FA06F825EA0805DFF8B880404503D1E7
:102670004FF0000817E044E0DFF8AC80404502D19D
:102680004FF001080FE0DFF8A480404502D14FF081
:10269000020808E0DFF89880404502D14FF00308B7
:1026A00001E04FF0040808FA06F848EA0508CCF8FB
:1026B00008804D68D9F80060ED024D4601D51643FB
:1026C00000E096432E604D68DAF80060AD02554692
:1026D00001D5164300E096432E604D68DBF800609C
:1026E000AD035D4601D5164300E096432E604D686C
:1026F000DEF80060ED03754601D5164300E0964311
:102700002E60641C0D682A46E5407FF431AFBDE8B9
:10271000F88F000008040140000011100010024072
:102720000000014000080140000C01400010014081
:10273000001401408068084000D0012070470AB1B1
:10274000016170470904FBE7014880687047000099
:1027500000000020024881680278114481607047BF
:1027600000000020074810B5016841F01001016029
:10277000032000F0A1F80F2000F006F800F04AF85E
:10278000002010BD0020024030B505461C4887B02F
:10279000816941F400618161806906A900F40060EB
:1027A000009001A800F0F8F900F016FA1549164A51
:1027B000B0FBF1F11548491E0260416040F2E7327A
:1027C0000021C0E903218160816100F0CDFB04009C
:1027D00012D10E4800F0F6FB04000DD1192000F0D4
:1027E0003DF8102D07D200222946192000F044F8A8
:1027F0000748056000E0012407B0204630BD000016
:102800000010024040420F00002C0140C82D002063
:10281000040000200F4808B5816941F00101816181
:10282000816901F001010091C16941F08051C161EC
:10283000C069002200F0805000900F21901E00F02F
:102840001BF80548416821F0E06141F000714160EA
:1028500008BD00000010024000000140002809DB14
:1028600000F01F02012191404009800000F1E020AA
:10287000C0F8001170470000F0B40E4B1B680C4606
:10288000C3F30223C3F10705042D00D90425191D44
:10289000072901D2002300E0DB1E012606FA05F11C
:1028A000491E214099409E40761E16403143F0BC9F
:1028B00001F02BBB0CED00E0064900F007020868B0
:1028C0004FF6FF03184040EA0220034A1043086015
:1028D000704700000CED00E00000FA0510B501465D
:1028E0000020234C012922D0022939D010291DD1E2
:1028F00061682268D20119D51E48C1F38342C90319
:10290000805C0AD561681B4AC1F34041921E515C4C
:10291000194AB2FBF1F1484301E0184948436168A4
:10292000490203D440000321B0FBF1F010BD226A3C
:10293000C2F30121012903D1920701D5C80310BDBB
:10294000022905D1626A920702D549F6404010BDBE
:102950000329FCD121688903F9D54FF2244010BD29
:1029600000F03AF96168C1F38131491C4900DBE7A5
:1029700000100240945C000800127A0000093D003B
:102980002DE9F84305460078354CC00754D0E0697E
:102990000026C00008D4E06940F08050E061E069A2
:1029A000012600F0805000902E480168C90512D41D
:1029B0000168804641F480710160FFF7C5FE07465B
:1029C00005E000BFFFF7C0FEC01B642823D8D8F87D
:1029D0000000C005F6D5206A10F4407021D0A98807
:1029E00001F4407181421CD0206A1F49012220F469
:1029F00040700A6000220A602062C00711D0FFF711
:102A0000A3FE074641F2883808E000BFFFF79CFEAE
:102A1000C11B414502D90320BDE8F883206A800725
:102A2000F4D5206A696820F44070084320621EB122
:102A3000E06920F08050E0612878800705D5606863
:102A4000A96820F44040084360602878C00605D596
:102A50006068E96820F48000084360600020DBE7DC
:102A60000010024000700040400442422DE9F0474F
:102A70000F46050061D0434E306800F00700B842B1
:102A800009D2306820F0070038433060306800F029
:102A90000700B84251D128683B4C810712D5400746
:102AA00003D5606840F4E06060602878000703D5D3
:102AB000606840F4605060606068A96820F0F000D1
:102AC000084360602878C00728D06868012810D0C3
:102AD0002168022810D0890700292EDA616821F0C8
:102AE000030101436160FFF72FFE804641F2883900
:102AF0000DE021688903EFE78901EDE7FFF724FE88
:102B0000A0EB0801494502D90320BDE8F0876068C1
:102B1000696800F00C00B0EB810FEFD1306800F075
:102B20000700B8420BD9306820F007003843306006
:102B3000306800F00700B84201D00120E5E72878AE
:102B4000400705D56068E96820F4E06008436060EC
:102B50002878000706D56068296920F4605040EAAB
:102B6000C100606000F048F86168084AC1F30311D1
:102B7000515CC8400649086006480068FFF704FE3B
:102B80000020C2E70020024000100240A45C0008C0
:102B90000C000020040000200F2202600C4A536841
:102BA00003F003034360536803F0F003836053684A
:102BB00003F4E063C36052684FF4E06303EAD202B7
:102BC00002610448006800F00700086070470000D8
:102BD000001002400020024004480549006849688E
:102BE000044AC1F3C221515CC84070470C00002068
:102BF00000100240B45C00080E4A51680E4801F013
:102C00000C03042B11D0082B0FD10C48C1F38343C4
:102C1000C903C05C0AD55168084AC1F34041921EFD
:102C2000515C054A5043B0FBF1F0704704494843FA
:102C3000704700000010024000127A00825C000819
:102C400000093D002DE9F84F040070D02078C04DF8
:102C5000C00749D06868C0F38100012807D06868C0
:102C6000C0F38100022809D16868C00306D528682E
:102C7000800339D560680028E7D035E06068B0F59A
:102C8000803F0BD010B1B0F5A02F11D0286820F4F0
:102C900080302860286820F4802002E0286840F412
:102CA00080302860606890B1FFF74EFD06460AE06C
:102CB000286840F480202860F0E700BFFFF744FD5B
:102CC000801B642873D828688003F7D50CE0FFF7D1
:102CD0003BFD064605E000BFFFF736FD801B64287C
:102CE000F0D828688003F7D420789A4E80074FF0F8
:102CF00001094FF0000839D5686810F00C0F07D0B3
:102D00006868C0F38100022809D16868C00306D44E
:102D10002868800714D52069012808D110E02069AF
:102D2000B0B1C6F80090FFF70FFD074605E00AE1D5
:102D3000FFF70AFDC01B0228C4D828688007F7D512
:102D40002868616920F0F80040EAC10028600DE0C1
:102D5000C6F80080FFF7F8FC074604E0FFF7F4FC34
:102D6000C01B022823D828688007F7D420780007E2
:102D70002CD57948A169D9B1C0F80090FFF7E4FCDF
:102D8000074604E0FFF7E0FCC01B02280FD8686A82
:102D90008007F7D571484FF4FA510068B0FBF1F0A5
:102DA000009000BF0098411E0091FAD20EE080E032
:102DB000C0F80080FFF7C8FC074604E0FFF7C4FC3A
:102DC000C01B022875D8686A8007F7D420784007AE
:102DD00060D5E8690027C00008D4E86940F0805059
:102DE000E861E869012700F0805000905C480168C4
:102DF000C90513D40168834641F480710160FFF76F
:102E0000A3FC824606E000BFFFF79EFCA0EB0A0091
:102E100064284ED8DBF80000C005F5D5E06801282D
:102E20000AD008B1052813D0286A20F001002862D2
:102E3000286A20F0040002E0286A40F001002862BD
:102E4000E06841F2883B98B1FFF77EFC82460BE0D8
:102E5000286A40F004002862EEE700BFFFF774FC28
:102E6000A0EB0A0159455AD8286A8007F6D50CE02C
:102E7000FFF76AFC824605E0FFF766FCA0EB0A015B
:102E800059454CD8286A8007F6D41FB1E86920F06C
:102E90008050E861E06988B36968C1F38101022963
:102EA00044D00228C6F8608004D0FFF74DFC0446E9
:102EB00038E034E0FFF748FC074604E0FFF744FC45
:102EC000C01B02282BD828688001F7D4206AB0F5EF
:102ED000803F05D16868A16820F40030084368602D
:102EE000D4E908010843696821F474110843686053
:102EF000C6F86090FFF728FC044606E025E000BF16
:102F0000FFF722FC001B022809D828688001F7D5AA
:102F10001BE000BFFFF718FC001B022802D90320AA
:102F2000BDE8F88F28688001F4D40EE00128F7D0BE
:102F30006868226A00F48031914204D1616A00F429
:102F40007010884201D00120EAE70020E8E7000085
:102F50000010024000004242800442420C00002067
:102F6000007000407047704710B5040003D094F81B
:102F70003D0010B107E0012010BD002084F83C00A6
:102F8000204600F01EF8022084F83D00211D206834
:102F900000F06AFF012084F8460084F83E0084F8BF
:102FA0003F0084F8400084F8410084F8420084F82F
:102FB000430084F8440084F8450084F83D00002074
:102FC00010BD704790F83D10012901D001207047D5
:102FD000022180F83D100168CA6842F00102CA600F
:102FE00000680B49884208D0B0F1804F05D00949EC
:102FF000884202D00849884204D1816801F0070163
:10300000062903D0016841F00101016000207047EA
:10301000002C0140000400400008004070472DE9EA
:10302000F04104460068C66805694FF00007A9072B
:1030300013D5B10711D5F91E016101202077206851
:1030400080698007204602D0FFF7E8FF04E000F027
:103050007EF8204600F07CF82777680716D57007C1
:1030600014D521686FF004000861022020772068E1
:10307000806910F4407F204602D0FFF7CFFF04E0C4
:1030800000F065F8204600F063F82777280715D58B
:10309000300713D521686FF00800086104202077FD
:1030A0002068C0698007204602D0FFF7B7FF04E020
:1030B00000F04DF8204600F04BF82777E80616D5CB
:1030C000F00614D521686FF0100008610820207701
:1030D0002068C06910F4407F204602D0FFF79EFFB1
:1030E00004E000F034F8204600F032F82777E807D3
:1030F00008D0F00706D021686FF001000861204673
:1031000000F028F8280608D5300606D521686FF0AB
:10311000800008612046FFF725FF680608D5700685
:1031200006D521686FF040000861204600F01CF8C9
:10313000A8060AD5B00608D521686FF020000861FE
:103140002046BDE8F041FFF70EBFBDE8F0817047B3
:103150007047000000680349884201D1FFF7FABABE
:1031600070470000002C01407047FEE700F029FF87
:103170000446641C204600F00DFF00F063F8F8E7F9
:1031800070B52E4C40212046FFF7D4FAC8B38021F9
:103190002046FFF7CFFAA8B3294D01212846FFF7B3
:1031A000C9FA80B302212846FFF7C4FA60B30421AC
:1031B0002846FFF7BFFA40B321152846FFF7BAFAB1
:1031C00070B3E1142046FFF7B5FA58B3A1142046B6
:1031D000FFF7B0FA40B320212846FFF7ABFA28B337
:1031E00040212846FFF7A6FA10B310212046FFF72A
:1031F000A1FAF8B120212046FFF79CFAE0B10020A7
:1032000070BD03E004E005E006E007E00120F7E719
:103210000220F5E70320F3E70420F1E70520EFE7BC
:103220000620EDE70720EBE70820E9E70920E7E7BC
:103230000A20E5E70B20E3E70C20E1E70008014066
:10324000000C014010B50D4C60782070A0786070C3
:10325000FFF796FFA070227861788A4208D18142F8
:1032600006D1611E10B10A7822B101E00020087079
:10327000002010BD01220A7010BD0000B500002022
:103280003EB5002411480094019402940E498460D4
:10329000016004730475012505614FF460214460E9
:1032A000C161FEF77BFF08B1FEF718FE0520009410
:1032B000CDE9015069460548FEF780FE002801D09F
:1032C000FEF70CFE3EBD000000240140982D0020BA
:1032D00010B500F0C9F8114800F0D1FE104C0F4AAB
:1032E0000021206110320F4800F01EFF0B4A606180
:1032F000343200210C4800F017FF084AA061583210
:1033000000210A4800F010FF044AE0617C320021ED
:10331000074800F009FF206210BD0000BC5C0008F7
:1033200090000020D13700086D310008011E000810
:10333000893700082DE9F04385B000242D4800941A
:10334000019402940394816941F0100181618169C3
:1033500001F010010491816941F0200181618169CE
:1033600001F020010491816941F0040181618169CA
:1033700001F004010491816941F0080181618069D3
:10338000DFF8748000F008004FF40055049000222C
:1033900029464046FFF7D3F9DFF860904FF43B47EA
:1033A000002239464846FFF7CAF900950226012552
:1033B0000396CDE9015469464046FFF7CBF841F644
:1033C000F0008DE8310069460D48FFF7C3F844F27C
:1033D00067408DE8310069464846FFF7BBF8009723
:1033E0000396CDE9015469464846FFF7B3F805B0A6
:1033F000BDE8F0830010024000100140000C0140C5
:1034000000080140FEE7FEE708B500200090401CE0
:1034100000906428FBD308BD10B5002000F05AF9D5
:10342000E22000F0CFF8BDE81040012000F052B9D2
:1034300010B5002000F04EF9E12000F0C3F8BDE81F
:103440001040012000F046B910B5002000F03AF914
:10345000012000F03FF9002000F04CF9BDE81040D9
:10346000002000F03FB9000010B5FFF7EDFF082184
:10347000002000F047F93F21012000F043F901212D
:10348000022000F03FF90321084600F03BF9032138
:10349000042000F037F90221052000F033F90E2155
:1034A000062000F02FF92021112000F02BF9052231
:1034B00007490A2000F038F9FFF7BAFFFFF7ACFF21
:1034C0007021072000F01EF9BDE8104000F066B83A
:1034D000BD0000204FF480410148FFF72BB90000E8
:1034E000000C014010B50446002000F0F3F820461F
:1034F00000F068F8FF2000F065F80446012000F0B5
:10350000E9F8204610BD70B506460D46002000F0D3
:10351000E1F8612000F056F8002405E0FF2000F0FB
:1035200051F83055641CE4B2AC42F7D3BDE87040AA
:10353000012000F0CFB810B5002000F0CBF8FF203C
:1035400000F040F80446012000F0C4F8204610BD09
:1035500010B5FFF7F0FF04460020FFF7C3FF800718
:1035600001D4032412E0C4F3011003280DD0600637
:103570000FD5012420210848FFF7C5FF402107206F
:1035800000F0C0F8FFF748FF04E00224FFF76CFFEB
:1035900000E00024204610BD3032002010B500208D
:1035A00000F090F80020FFF79DFFFF2809D040F0C1
:1035B0000301002000F0A6F8BDE81040012000F053
:1035C00081B810BD70B504460025200601D5012044
:1035D00000E0002000F086F86006040E012000F0F4
:1035E00089F8FFF711FFFFF775FF08B144F00104F8
:1035F000002000F07FF8FFF707FF6D1CEDB2082DEB
:10360000E3D3204670BD000070B505221F4910208D
:1036100000F08AF805221D490A2000F085F82021D3
:103620001B4800F09AF800F037F842F21074194E77
:10363000250600BFFFF77FFF641E07D0C0F301110E
:10364000032905D0C10607D5022402E0042400E0C6
:103650000324FFF709FF02E0800610D50124302182
:10366000072000F04FF8FFF7E3FE08490522491D47
:103670000A2000F059F8FFF791FF204670BD356031
:10368000BFF34F8FBFF36F8FD4E70000B800002067
:103690001032002004ED00E010B5002000F012F818
:1036A0000020FFF71FFFFF280BD020F0010040F0A3
:1036B0000201002000F026F8BDE81040012000F0D3
:1036C00001B810BD02464FF400610148FFF737B85A
:1036D000000C014002464FF480510148FFF72FB81B
:1036E000000C014002464FF400410148FFF727B8A3
:1036F000000C014002464FF400510148FFF71FB88B
:10370000000C014070B504460D460020FFF7E2FFB3
:1037100044F02000FFF756FF2846FFF753FFBDE8AF
:1037200070400120FFF7D6BF70B5044615460E461F
:103730000020FFF7CFFF44F02000FFF743FF0024F5
:1037400004E0305DFFF73EFF641CE4B2AC42F8D306
:10375000BDE870400120FFF7BDBF70B506460D46BD
:103760000020FFF7B7FFA020FFF72CFF002404E0A4
:10377000305DFFF727FF641CE4B2AC42F8D3BDE82C
:1037800070400120FFF7A6BF00F01BFC0E4C0F4D50
:1037900006464FF0FF376436304600F0FBFBFFF77C
:1037A000D7FE2089287060896870A089A870E08998
:1037B000E8703946206900F039FCFFF725FF2069E1
:1037C00000F091FCE7E7000090000020103200209C
:1037D00008B500F0F6FB264C05460A35284600F0F1
:1037E000D9FBB4F908000021009022A30622084664
:1037F00000F043F9B4F90A00009020A3062210213A
:10380000002000F03AF9B4F90C0000901DA3062244
:103810002021002000F031F9B4F90E0000901BA324
:1038200006223021002000F028F92088009019A3FA
:10383000062200213C2000F020F96088009018A3A7
:10384000062210213C2000F018F9A088009017A350
:10385000062220213C2000F010F9E088009016A3F9
:10386000062230213C2000F008F900F05FFAB4E7AE
:10387000900000204C483A25346400004C563A250C
:103880003464000052483A253464000052563A2508
:103890003464000041445F4C483A25346400000021
:1038A00041445F4C563A25346400000041445F5265
:1038B000483A25346400000041445F52563A2534AA
:1038C0006400000010B50021074C0A46002004EBFC
:1038D000C1131A54401CC0B28028FAD3491CC9B283
:1038E0000829F3D310BD0000102E0020F0B50B44C2
:1038F00024E0044685181DE07F2C19D8002917DB29
:103900003F2915DCCE1701EB56764FEAE60C0D4F3A
:1039100026F0070607EBCC172744A1EB060E97F815
:1039200000C0012606FA0EF62CEA060C87F800C045
:10393000641C24B2A542DFDC491C09B28B42D8DCEE
:10394000F0BD0000102E002010B500204FF47A7258
:103950000021491C9142FCD3401C9042F8D3012025
:1039600000F0F8F9BDE81040012000F0FBB970B597
:1039700000240646802525FA04F0304000D00120BE
:1039800000F0F0F9012000F0E5F9002000F0E2F984
:10399000641CE4B2082CEED3012000F0DBF9BDE892
:1039A0007040002000F0D6B910B5012000F0DAF91F
:1039B000012000F0CFF9002000F0D4F9BDE810405C
:1039C000002000F0C7B910B5002000F0CBF90120AD
:1039D00000F0C0F9BDE81040012000F0C3B910B5F7
:1039E000FFF7B2FFAE2000F0C5F9D52000F0C2F914
:1039F000802000F0BFF9A82000F0BCF93F2000F0C3
:103A0000B9F9D32000F0B6F9002000F0B3F9402056
:103A100000F0B0F9A12000F0ADF9C82000F0AAF93B
:103A2000DA2000F0A7F9122000F0A4F9812000F0BC
:103A3000A1F9CF2000F09EF9D92000F09BF9F120E8
:103A400000F098F9DB2000F095F9302000F092F9B1
:103A5000A42000F08FF9A62000F08CF98D2000F052
:103A600089F9142000F086F9AF2000F083F9FFF700
:103A700029FFBDE8104000F059B90FB470B5C0B0CF
:103A800014460D46064648AA68464799FCF73EFC90
:103A900023466A462946304600F092F840B070BC92
:103AA0005DF814FB10B50C4640F0B00000F062F970
:103AB000102040EA141000F05DF904F00F00BDE89A
:103AC000104000F057B9000008B5082B0DD0062BA8
:103AD0000AD10A4B02EB420203EB4202C03A0092C7
:103AE0000823062200F00EF808BD054B03EB021276
:103AF000A2F50072102300920822F3E74C6300083D
:103B00005C5D00082DE9F04F1F4616460D468246C3
:103B10000024FFF7EBFE7F1EF81707EB5070012122
:103B2000DFF898B001EBE00743E000203DE000BF84
:103B30000AEB00037F2B36D8E91705EB5171CA1049
:103B400021F00701691A002D03DA521E083112B262
:103B500009B202EB0409B9F1070F0ED8099A04FB68
:103B600006F802440BEBC91E18F802201EF803C029
:103B70008A404CEA020C0EF803C009F10102072A40
:103B800011D80BEBC91202EB0308099A04FB06FCDF
:103B9000024498F880301CF80220C1F10801CA40A4
:103BA000134388F88030401CC0B2B042C0D3641CBC
:103BB000E4B2A742B9DCBDE8F08F0000102E00206F
:103BC0002DE9FF4F002483B09B4690462546A24630
:103BD000DFF850919EE0100610D403988DF8042071
:103BE000641C2844A4B28DF805A000B25B46049979
:103BF000FFF76AFF05EB0B0085B28BE00620B0EB08
:103C0000521F0ED1641CA0B28DF8042018F80010C9
:103C1000002974D08DF80510401C84B28DF806A0E0
:103C20003CE00E20B0EB121F16D1641CA0B28DF840
:103C3000042018F80010002971D0401C80B28DF8C3
:103C4000051018F80010002969D08DF80610401CE6
:103C500084B28DF807A021E01E20B0EBD20F1FD157
:103C6000641CA0B28DF8042018F80010002956D06A
:103C7000401C80B28DF8051018F8001000294ED0B5
:103C8000401C80B28DF8061018F80010002946D0AC
:103C9000401C8DF8071084B28DF808A0002609E0BA
:103CA000641CA4B236E0384601A9FCF7B5FB68B144
:103CB000761CB6B206EB860000EB461101EB09005C
:103CC000074619A1FCF7A8FB0028ECD1BBF1080FAF
:103CD00003D0BBF1060F1DD112E006EB860000EB0E
:103CE000461101EB0900401D009003981023284461
:103CF00000B21A460499FFF705FF103509E00EE0FF
:103D000003980623284400B23F220499FFF7DCFE03
:103D1000AD1DADB218F80420002A7FF45CAF07B0E7
:103D2000BDE8F08F866500080000000070B5084D02
:103D3000002400212046FFF7B5FE05EBC4108021CA
:103D400000F029F8641CE4B2082CF2D370BD000026
:103D5000102E002002464FF480710148FEF7EFBCA0
:103D6000000C014002464FF400710148FEF7E7BC29
:103D7000000C014010B50446FFF716FE7820FFF74F
:103D8000F6FD0020FFF7F3FD2046FFF7F0FDBDE84C
:103D90001040FFF718BE70B50D460646FFF704FE4B
:103DA0007820FFF7E4FD4020FFF7E1FD002404E068
:103DB000305DFFF7DCFD641CE4B2AC42F8D3BDE833
:103DC0007040FFF700BE10B54FF0E020006901F031
:103DD0002DFD012803D0BDE8104001F023B910BD2E
:103DE00030B593B028216846FCF7EFFA14210AA8F1
:103DF000FCF7EBFA002501200F95109511950104B1
:103E000012958DE8230004904FF4E010CDE90810DE
:103E1000022407946846FEF715FF08B172B6FEE764
:103E20000AA90F2081E831004FF48060CDE90D052B
:103E300002210AA8FEF71AFE08B172B6FEE74FF497
:103E4000004011900F940FA8FEF79AFD002801D0B2
:103E500072B6FEE713B030BD704700000148FFF7AF
:103E6000DEB80000C82D0020F0B50268194B1A4CCE
:103E70001A4D4FF08047984205D0B84203D0A04277
:103E800001D0A84203D122F070064A68324398421A
:103E900005D0B84203D0A04201D0A84203D122F4F9
:103EA0004074CA6822434C6922F0800222430260B7
:103EB0008A68C2620A688262984201D10969016314
:103EC000012141610169C90703D0016921F00101A4
:103ED0000161F0BD002C01400004004000080040DA
:103EE000FEE7490050EAC12018BF04204A0D18BF60
:103EF00040F0010040F2FF72B2EB515F08BF40F0AA
:103F00000200012808BF052070470907090E002894
:103F100004DB00F1E02080F80014704700F00F008F
:103F200000F1E02080F8141D704730380A2801D2D3
:103F3000012070470020704708B5FEF713FCFFF71B
:103F40004FFFFFF7F7F9FFF79BF90F48FDF7C8FFA1
:103F500008B172B6FEE7FFF742FD0C48816941F0F7
:103F600001018161806900F001000090084841680A
:103F700021F0E06141F00071416000F029F8FFF7A5
:103F8000A7F900F037F8FEE7982D00200010024056
:103F90000000014038B50546EFF3058010B16FF021
:103FA00005040CE0002401F04FFC291A00900029C0
:103FB00003DD684600F094FE01E06FF00304204644
:103FC00038BDEFF3058008B101F044BC01F03CBC02
:103FD000EFF3058010B16FF00500704704480168E9
:103FE00011B14FF0FF307047012101600020704790
:103FF0006000002010B5EFF3058010B16FF00500F0
:1040000010BD08480168012902D04FF0FF3010BDF3
:10401000054A002182F8141D0221016000F030FFE2
:10402000002010BD600000200BE000E02DE9F04111
:104030000D46014621F0010001F001014FF000049E
:10404000EFF305820AB1A41F16E048B100296FF012
:1040500001066FF00207294608D001F02FFB07E0A8
:104060006FF0030408E035B1344605E001F06AFA68
:104070000128F8D100E03C462046BDE8F08170B54B
:1040800005464FF00004EFF3058050BB0DB16868A2
:1040900000E00020C10701D0012600E00026000753
:1040A0001FD46DB1D5E9021021B1502819D31EB12A
:1040B000042002E020B114E0012000F0D4FF05E06C
:1040C0000EB1042000E0012000F0C2FF040008D07F
:1040D0000DB1296800E0002100F0CCFD0EB144F0E4
:1040E0000104204670BD70B5014621F0010001F0C9
:1040F00001014FF00004EFF305820AB1A41F11E0A3
:1041000028B16FF0020529B101F061F907E06FF005
:10411000030407E000231A46194601F049F8012874
:1041200000D02C46204670BD2DE9FF414FEA010327
:104130004FF00005EFF30581039549BB40B380279D
:10414000182100244AB3166806B1344696691EB198
:104150003146761E382E02D21679F60703D000209B
:1041600004B0BDE8F081566906B1B708D2F808C0BE
:10417000BCF1000F0DD0D5685C2D18D312693AB18F
:1041800036B18DE806103A46214601F01EFB039039
:104190000DE0D6685EB912694AB903AACDE90012EA
:1041A000BAB2214601F0E4FA012800D00395039841
:1041B000D6E700002DE9F041134C0F460546E668AE
:1041C0002068001D00F058FC681C07D137B1216839
:1041D000BDE8F0410D48091D00F09EBC2068354443
:1041E000B5424560216805D2A06BBDE8F041091DCC
:1041F00000F07ABC606B091D00F076FCA06A854275
:1042000000D2A562BDE8F08110000020B4050020B6
:104210002DE9F041054600F08BFC2D4CA068401CB8
:10422000A06020682B4F10B1606930B32BE025608F
:10423000A068012827D1002606EB860007EB800046
:1042400000F044FC761C382EF6D3234800F03EFCE8
:104250002148143000F03AFC1F48283000F036FCAA
:104260001D483C3000F032FC1B48503000F02EFC62
:10427000194860631430A06305E02068E96AC06AE9
:10428000884200D82560606A401C60626864E86A01
:104290002169884200D9206100EB800007EB800093
:1042A000291D00F039FC00F063FC606900280CD087
:1042B0002068E96AC06A884207D208494FF08050F6
:1042C0000860BFF34F8FBFF36F8FBDE8F081000030
:1042D00010000020040100206405002004ED00E02F
:1042E00038B500F025FC104C2068C8B90F4800F024
:1042F000EDFB0E48143000F0E9FB0C48E060143090
:1043000020610A4B0020F03B009003F15002102185
:104310000A2000F0D6FE206010B105A100F0AAFC32
:10432000BDE8384000F024BC4C000020B806002056
:10433000546D72510000000030B4026C0B46002A2C
:104340000BD0C1681144C1608468A14201D30168E7
:10435000C16030BC1846FBF7EBBF30BC70472DE99D
:10436000F041856B174604460026026C82B1C7B146
:10437000E068FBF7DDFFE168206C091AE160226864
:10438000914202D2A168081AE060022F16D017E00D
:104390002068A8B9A06801F0C9FA06460020A0600C
:1043A0000EE06068FBF7C4FF216C60680844606041
:1043B000A168884204D32068606001E005B16D1EE9
:1043C0006D1CA5633046BDE8F08110B5044690F839
:1043D000590058B101280CD002280FD0502080F38A
:1043E0001188BFF34F8FBFF36F8FFEE7206B00F094
:1043F000D3FB2046BDE8104000F0CEBB10BD00004E
:1044000010484FF40051420706D0C01D0D4920F05E
:104410000700411AC1F500510B4A00230144C2E9CB
:1044200000030839183A21F0070111604B600B6056
:104430000B1AC0E9001393604FF0004053605061C5
:1044400070470000980D00207C000020144E154C91
:10445000A6F29C474FF08058DFF84C9012E000BF66
:1044600000F066FBF068C568281D00F005FBA06839
:10447000401EA0606068401E606000F079FB284626
:10448000FFF7A3FF60680028EAD138680128F9D94E
:10449000C9F80080BFF34F8FBFF36F8FF2E70000C2
:1044A000A00500201000002004ED00E0002807D047
:1044B0000021816001600B460A46C16000F078BEB1
:1044C0007047000070B51D46049C51B1C4F800202F
:1044D000C4E90F010121204600F026FE84F84C506B
:1044E00070BD2460F4E700002DE9F05F8846DDE947
:1044F0000B941546834691009A460A9EA522206B8E
:10450000FBF75BFF6FF00301206B01EB85010844B3
:1045100020F00707780707D0502080F31188BFF3F9
:104520004F8FBFF36F8FFEE70025B8F1000F0FD05C
:104530005FF00000221818F8001082F8341018F804
:10454000001011B1401C1028F4D384F8435001E04E
:1045500084F83450382E00D33726E662C4E9136558
:10456000201D00F0BEFA04F1180000F0BAFA246130
:10457000C6F138006462A061656584F858505246FF
:104580005946384600F066FA2060B9F1000F01D0B4
:10459000C9F80040BDE8F09F30B5114900E0114670
:1045A0000A688242FBD34B685C18844203D140689E
:1045B00018444860084643681C18944209D1084CC6
:1045C000183C2468A24209D052681A4442600A6822
:1045D00012680260814200D0086030BD0460F9E7D3
:1045E0007C00002070B5002441600B4D00619142B9
:1045F00006D8D11A8269914206D2011D286907E0C6
:104600009A4203D2994201D3012403E0011DE868D4
:1046100000F06AFA204670BD4C00002010B5044638
:1046200000F086FAA06B28B15FF0000400F0A0FA59
:10463000204610BD0124F9E730B589B03C4D6EE04D
:104640000498002806DADDE90601059A90470498E7
:10465000002864DB069C606910B1201D00F00CFA94
:1046600003A800F0D7F8024604980A2857D2DFE8DA
:1046700000F00505052D334A05052D3394F8280073
:1046800040F0010084F828000599A069059B0144C9
:104690002046FFF7A7FF68B3216A2046884794F8B1
:1046A000280040073BD5002000900598A169002311
:1046B00042181946204601F07FFAD8B9502080F3FD
:1046C0001188BFF34F8FBFF36F8FFEE714F8280FE9
:1046D00020F00100207022E094F8280040F0010052
:1046E00084F828000598A06128B181181346204657
:1046F000FFF778FF13E0502080F31188BFF34F8F4E
:10470000BFF36F8FFEE794F82800810703D420469B
:1047100000F042FA03E020F0010084F828000022B3
:1047200004A9286800F072FE002889D109B030BDC4
:104730004C0000202DE9FC410F46054600F0E4FB4B
:1047400001A800F067F80446019818B101F0A2F939
:10475000BDE8FC81254EAFB130690068D0B30027B9
:10476000291B3A46306800F099FA01F093F90028C5
:10477000EED11F494FF080500860BFF34F8FBFF359
:104780006F8FE5E7A542EBD801F084F9F068274682
:10479000C068C468201D00F06FF994F82800410734
:1047A00019D5A0692B4641193A462046FFF71AFF52
:1047B000A8B100200346014600902A46204601F099
:1047C000FBF960B9502080F31188BFF34F8FBFF31E
:1047D0006F8FFEE707E020F0010084F82800216ACF
:1047E00020468847B4E70127BAE700004C000020C4
:1047F00004ED00E00648416B096829B1416BC968C6
:10480000C9684968816270474FF0FF31FAE70000DC
:104810001000002070B5054601F016F8064E04465B
:10482000B068844203D200F009F8012000E00020C3
:1048300028602046B46070BD4C000020F8B5194DCA
:1048400020E0C068C4680668201D00F015F9216AE0
:104850002046884794F82800400713D5A0693044C3
:10486000B04206D924616060211DE86800F03CF97F
:1048700008E000200346014600903246204601F041
:104880009BF938B1E86801680029DAD12969C5E9DE
:104890000310F8BD502080F31188BFF34F8FBFF392
:1048A0006F8FFEE74C00002008484068401C4FF026
:1048B000500080F3118804D0BFF34F8FBFF36F8F88
:1048C000FEE7BFF34F8FBFF36F8FFEE7840000203A
:1048D000074CE068016841B1C0680021D0F80000D1
:1048E000FFF728FFFFF7A8FEF3E701210020F7E715
:1048F0004C0000202DE9F041044600F019F994F92C
:10490000455004F1240609E0606A48B1304601F0E0
:1049100089F808B100F032FA6D1E6DB2002DF3DC9B
:104920004FF0FF3684F8456000F022F900F000F9FE
:1049300094F9445004F1100709E0206948B1384661
:1049400001F070F808B100F019FA6D1E6DB2002D7B
:10495000F3DC84F84460BDE8F04100F009B90000E0
:104960002DE9F0410546002700F0CEFA324E3068BE
:1049700008B9FFF745FD706905424ED1C5B308354A
:1049800068070ED005F00700C0F10800054468076D
:1049900007D0502080F31188BFF34F8FBFF36F8F84
:1049A000FEE72DB37068854237D82348183001469A
:1049B0000C6801E020460C466168A94202D22168D9
:1049C0000029F7D131688C4227D00768216801603F
:1049D00060680837411B10290FD96019420708D0B9
:1049E000502080F31188BFF34F8FBFF36F8FFEE726
:1049F00013E041606560FFF7CFFD61687068401AA1
:104A00007060B268904200D2B060706901430020CB
:104A1000C4E90001F068401CF06001F03BF8780741
:104A200007D0502080F31188BFF34F8FBFF36F8FF3
:104A3000FEE73846BDE8F0816400002004490868BC
:104A400018B10868026D521C0265086870470000C2
:104A50001000002010B5031F4FF080741C601B1F56
:104A600021F001011960191F024B0B601439403805
:104A70000A6010BDA9480008D0E9013201699A60B6
:104A8000D0E901235A604A68824201D182684A60B3
:104A9000002202610868401E086008687047000034
:104AA000034B036003F15C000860802010607047D6
:104AB000E0060020044B036003F15C0008604FF443
:104AC00080701060704700003C09002000F1080170
:104AD0004FF0FF32C0E90112C160016100210160A5
:104AE000704700210161704730B50B685A1C02D035
:104AF00000F1080202E0026904E0224654682568D9
:104B00009D42FAD953684B6099608A605160086190
:104B10000168491C016030BD42684A6093688B603F
:104B200093685960916008610168491C0160704791
:104B3000502080F31188BFF34F8FBFF36F8F0A4966
:104B40004868401C486001280CD10848006810F0F3
:104B5000FF0F07D0502080F31188BFF34F8FBFF3B2
:104B60006F8FFEE7704700008400002004ED00E036
:104B70000849486828B1401E486001D180F3118877
:104B80007047502080F31188BFF34F8FBFF36F8FB2
:104B9000FEE700008400002070B500282AD0164DE2
:104BA000A0F1080460686969084207D1502080F3C9
:104BB0001188BFF34F8FBFF36F8FFEE722683AB1C2
:104BC000502080F31188BFF34F8FBFF36F8FFEE744
:104BD0008843606000F098F960686968084468601C
:104BE0002046FFF7D9FC2869401C2861BDE87040C9
:104BF00000F050BF70BD0000640000204FF0E020C6
:104C000000210161816105494FF47A720968B1FBA5
:104C1000F2F1491E41610721016170470C0000203B
:104C200010B5FBF74FFB114910280ED300F1E0201F
:104C300090F8F0030A78904207D2502080F3118850
:104C4000BFF34F8FBFF36F8FFEE709480068896895
:104C500000F4E060884207D9502080F31188BFF348
:104C60004F8FBFF36F8FFEE710BD00008400002060
:104C70000CED00E010B5084B002200BF53F83240A5
:104C80001CB1521C082AF9D310BD43F8321003EBB3
:104C9000C201486010BD0000C400002070B5154678
:104CA0000E460446FFF744FF94F944100020491CC7
:104CB00001D184F8440094F94510491C01D184F8CD
:104CC0004500FFF755FFA06B28B92A46314604F18D
:104CD000240000F071F82046BDE87040FFF70ABEDE
:104CE00070B50D4604000BD095B11E4A106BB8B1DB
:104CF000502080F31188BFF34F8FBFF36F8FFEE713
:104D0000502080F31188BFF34F8FBFF36F8FFEE702
:104D1000502080F31188BFF34F8FBFF36F8FFEE7F2
:104D200000F0F2F8D26823685919934204D98B42F3
:104D30000AD9914202D807E08B42FAD9881A216039
:104D40000021FFF737FA00E0216000F0A3FE002801
:104D500007D105494FF080500860BFF34F8FBFF374
:104D60006F8F70BD1000002004ED00E002490A6A58
:104D70000260C968416070471000002001490120AD
:104D8000C86170471000002010B50C4650B10949A9
:104D900009681831FFF7A8FE2046BDE81040012140
:104DA000FFF708BA502080F31188BFF34F8FBFF38D
:104DB0006F8FFEE71000002070B514460D4668B1F5
:104DC0000A4909681831FFF7A7FE0CB14FF0FF350B
:104DD00021462846BDE87040FFF7ECB9502080F32B
:104DE0001188BFF34F8FBFF36F8FFEE710000020D5
:104DF00070B504003ED0226DA2B1E06C884200D3B1
:104E00000146E06A884235D0012A33D11A4D2A681A
:104E100094420FD1502080F31188BFF34F8FBFF31E
:104E20006F8FFEE7502080F31188BFF34F8FBFF3E1
:104E30006F8FFEE7E162A269002A02DBC1F138014F
:104E4000A1610E4E00EB8000616906EB800081429B
:104E500010D1201DFFF710FEE06A2969884200D9B1
:104E6000286100EB800006EB8000211DBDE870404A
:104E7000FFF752BE70BD00001000002004010020AA
:104E800030B587B00024039405AA04A903A80494AC
:104E9000FFF706FEDDE903010094CDE901100023D0
:104EA00015A11748059A00F090FC164D0028E862FD
:104EB0001FD000F051FE012809D0401C19D150200C
:104EC00080F31188BFF34F8FBFF36F8FFEE7502041
:104ED00080F31188BFF34F8FBFF36F8F4FF0FF3018
:104EE000A86201206861EC6007B0BDE8304000F0C6
:104EF00045B807B030BD000049444C4500000000F3
:104F00004D440008100000200248016B491C016359
:104F10007047000010000020164810B5016B11B159
:104F20000121C16110BD0021C1610169124A01E086
:104F3000B9B1491E01EB810352F82330002BF7D0A1
:104F400001EB810302EB830202F1080453685B6802
:104F50005360A34201D15B685360DA68026001616B
:104F600010BD502080F31188BFF34F8FBFF36F8FB8
:104F7000FEE7000010000020040100201CB52649B7
:104F800008780190FF20087008788DF800009DF8DF
:104F900000009DF8002000F0F000904207D0502063
:104FA00080F31188BFF34F8FBFF36F8FFEE79DF83B
:104FB00000001A4C00F0500020700720A06005E0AF
:104FC0009DF8002052008DF80020401E9DF8002022
:104FD0001206F5D4A060032807D0502080F3118872
:104FE000BFF34F8FBFF36F8FFEE74FF44070A060A9
:104FF000019808700A48016841F470010160016875
:1050000041F070410160FFF7F9FD00206060FBF79F
:1050100023F900201CBD000000E400E08400002013
:1050200020ED00E010B5502080F31188BFF34F8FC2
:10503000BFF36F8F00F016FC18B104494FF0805099
:105040000860002080F3118810BD000004ED00E02E
:1050500010B502460021012000F012F80446FFF7C7
:1050600025FA204610BD38B50B46002200901146A7
:10507000012000F026F80446FFF718FA204638BD54
:10508000F8B517460E46050013D005FB06F0503064
:10509000FFF766FC04000AD0002084F8460004F103
:1050A00050023B46314628460094FFF70BFA204653
:1050B000F8BD502080F31188BFF34F8FBFF36F8F7F
:1050C000FEE738B5049D18B153B1CAB181B120E0F3
:1050D000502080F31188BFF34F8FBFF36F8FFEE72F
:1050E000502080F31188BFF34F8FBFF36F8FFEE71F
:1050F000502080F31188BFF34F8FBFF36F8FFEE70F
:1051000039B1502080F31188BFF34F8FBFF36F8FF9
:10511000FEE750241C46012384F846302B460094B9
:10512000FFF7D0F9204638BD70B50D46040025D0F4
:10513000FFF7FEFCD4E90F20216802FB0011A160FB
:105140000021A163216861600A46D4E90F01401E75
:1051500000FB0121E16021464FF0FF3001F8440FD0
:10516000487004F110008DB1FFF7B0FC04F1240089
:10517000FFF7ACFCFFF7FCFC012070BD502080F372
:105180001188BFF34F8FBFF36F8FFEE721690029AE
:10519000F0D000F047FC0028ECD004494FF08050DC
:1051A0000860BFF34F8FBFF36F8FE3E704ED00E0BC
:1051B0002DE9FF4782B01D468A464FF000080400E3
:1051C00003D0BAF1000F08D011E0502080F311880D
:1051D000BFF34F8FBFF36F8FFEE7206C38B15020C5
:1051E00080F31188BFF34F8FBFF36F8FFEE7022D5F
:1051F0000AD1E06B012807D0502080F31188BFF35B
:105200004F8FBFF36F8FFEE700F010FB3F4F4FF063
:1052100000094FF0805648B9049838B1502080F307
:105220001188BFF34F8FBFF36F8FFEE7FFF780FC4E
:10523000A06BE16B884207D3022D05D00498D0B152
:10524000B8F1000F1AD01EE02A4651462046FFF75B
:1052500086F8616A19B104F1240000F0E3FB20B183
:105260003E60BFF34F8FBFF36F8FFFF781FC0120CC
:1052700006B0BDE8F087FFF77BFC22E06846FFF749
:1052800075FD4FF00108FFF773FCFFF73DFEFFF7D8
:105290004FFC94F94400401C01D184F8449094F9E7
:1052A0004500401C01D184F84590FFF761FC04A93A
:1052B000684600F023FA30B12046FFF71BFB00F0F0
:1052C000E9FB0020D4E7FFF733FCA06BE16B8842D9
:1052D00013D1FFF74DFC04F110000499FFF754FDC2
:1052E0002046FFF707FB00F0D5FB00289ED13E606B
:1052F000BFF34F8FBFF36F8F98E7FFF739FC20465E
:10530000FFF7F8FA00F0C6FB90E7000004ED00E0BC
:105310002DE9F0471F4690468946040003D0B9F1B5
:10532000000F08D011E0502080F31188BFF34F8F99
:10533000BFF36F8FFEE7206C38B1502080F31188E7
:10534000BFF34F8FBFF36F8FFEE7022F0AD1E06BE1
:10535000012807D0502080F31188BFF34F8FBFF38F
:105360006F8FFEE7FFF75CFC5020EFF3118680F3B0
:105370001188BFF34F8FBFF36F8FA06BE16B884233
:1053800006D3022F04D0002086F31188BDE8F087F1
:1053900094F94550A06B3A4649462046FEF7DFFF98
:1053A000681C04D06D1C84F845500120ECE7606A4D
:1053B0000028FAD004F1240000F034FB0028F4D0D7
:1053C000B8F1000FF1D00121C8F80010EDE710B5D9
:1053D000040009D000F024FAA168884214D1E068E2
:1053E000401EE06008D00DE0502080F31188BFF32C
:1053F0004F8FBFF36F8FFEE700231A4619462046F2
:10540000FFF7D6FE012010BD002010BD2DE9F747A3
:10541000002683B08A46040003D0BAF1000F08D0FA
:1054200011E0502080F31188BFF34F8FBFF36F8FCF
:10543000FEE7206C38B1502080F31188BFF34F8F06
:10544000BFF36F8FFEE700F0F1F9DFF8F4804FF063
:1054500000094FF0805748B9059838B1502080F3C3
:105460001188BFF34F8FBFF36F8FFEE7FFF760FB2D
:10547000A56BC5B151462046FEF75EFF6D1EA563C4
:10548000206950B104F1100000F0CCFA28B1C8F83E
:105490000070BFF34F8FBFF36F8FFFF769FB0120E1
:1054A00006B0BDE8F087059808B11EB106E0FFF729
:1054B0005FFB27E06846FFF759FC0126FFF758FB22
:1054C000FFF722FDFFF734FB94F94400401C01D1A3
:1054D00084F8449094F94500401C01D184F845902B
:1054E000FFF746FB05A9684600F008F900282046AA
:1054F0000AD0FFF7FFF900F0CDFA2046FFF78EF84B
:105500000028B3D00020CBE7FFF788F890B104F172
:1055100024000599FFF738FC2046FFF7EBF900F06F
:10552000B9FA0028A2D1C8F80070BFF34F8FBFF3BB
:105530006F8F9BE72046FFF7DDF900F0ABFA95E7A8
:1055400004ED00E02DE9F343002683B00400354666
:1055500009D0206C78B1502080F31188BFF34F8FB1
:10556000BFF36F8FFEE7502080F31188BFF34F8F9A
:10557000BFF36F8FFEE700F059F9DFF83C814FF081
:1055800000094FF0805748B9049838B1502080F393
:105590001188BFF34F8FBFF36F8FFEE7FFF7C8FA95
:1055A000A06BC8B1401EA063206810B9FFF746FA8F
:1055B000A060206950B104F1100000F033FA28B166
:1055C000C8F80070BFF34F8FBFF36F8FFFF7D0FAAB
:1055D000012005B0BDE8F083049808B166B10FE082
:1055E0003DB1502080F31188BFF34F8FBFF36F8F11
:1055F000FEE7FFF7BDFA5DE06846FFF7B7FB01265F
:10560000FFF7B6FAFFF780FCFFF792FA94F944002F
:10561000401C01D184F8449094F94500401C01D10C
:1056200084F84590FFF7A4FA04A9684600F066F8EC
:105630000028204612D0FFF75DF900F02BFA204633
:10564000FEF7ECFF0028A9D09DB3FFF771FA606A5E
:1056500050B3206B0068C0F1380126E0FEF7DEFF92
:10566000E0B1206838B9FFF763FAA06800F09EF94E
:105670000546FFF77DFA04F124000499FFF784FB47
:105680002046FFF737F900F005FA002886D1C8F860
:105690000070BFF34F8FBFF36F8F7FE72046FFF798
:1056A00029F900F0F7F979E70021A068FFF7A0FBDE
:1056B0009FE7FFE700208CE704ED00E070B50D46A2
:1056C000040009D000F0ACF8A16888420CD1E06871
:1056D000401CE060012070BD502080F31188BFF3B2
:1056E0004F8FBFF36F8FFEE729462046FFF72AFF53
:1056F0000028F0D0E168491CE16070BD2DE9F0415F
:105700000C46050011D0C4B1FFF712FA174BDA6846
:105710006E682068911B471C17D02F681B6A9F4238
:1057200019D0964217D8012410E0502080F3118838
:10573000BFF34F8FBFF36F8FFEE7502080F31188C8
:10574000BFF34F8FBFF36F8FFEE70024FFF710FA10
:105750002046BDE8F081884205D9401A20602846DD
:10576000FFF704FBF1E700202060DCE710000020D9
:105770002DE9FF5F8346DDE90E87994616468A4686
:105780009000FFF7EDF805001CD05C20FFF7E8F86B
:10579000040014D00020256384F85900CDE90240AC
:1057A000CDE900874B46324651465846FEF79CFEEF
:1057B0002046FEF72DFD012004B0BDE8F09F2846ED
:1057C000FFF7EAF94FF0FF30F6E7F0B585B0DDE915
:1057D0000B640A9DA6B1DCB15C2700972663022604
:1057E00084F85960002604AFCDE90246CDE90057A0
:1057F000FEF77AFE2046FEF70BFD049805B0F0BDDB
:10580000502080F31188BFF34F8FBFF36F8FFEE7F7
:10581000502080F31188BFF34F8FBFF36F8FFEE7E7
:1058200001480068704700001000002005484169E9
:1058300019B1006B18B10020704701207047022099
:1058400070470000100000200148C0687047000049
:105850001000002010B5FFF7E3F90148C06810BD43
:10586000100000202DE9F0412E4C0027206B28B1BC
:10587000A069401CA0613846BDE8F081E668761C4E
:10588000E66013D1606B006838B1502080F3118856
:10589000BFF34F8FBFF36F8FFEE7606BA16B616348
:1058A000A063206A401C2062FEF7A4FFA06ADFF814
:1058B0007880864209D3606B0068A0B1606BC068D5
:1058C000C5686868864211D2A0622068C06A00EB91
:1058D000800158F82100012800D90127E06900283B
:1058E000C9D00127C7E74FF0FF30EDE7281DFFF7CC
:1058F000C3F8A86A18B105F11800FFF7BDF8E86A07
:105900002169884200D9206100EB800108EB810009
:10591000291DFFF701F9E86A2168C96A8842CAD3DC
:105920000127C8E7100000200401002070B5040022
:105930004FF0000133D01B4D2868844207D050201F
:1059400080F31188BFF34F8FBFF36F8FFEE7206D99
:1059500038B1401E2065E36CE26A9A421FD040B124
:105960001DE0502080F31188BFF34F8FBFF36F8F7E
:10597000FEE7201DFFF780F8E06CE062C0F1380020
:10598000A061E06A2969884200D92861064900EBD4
:10599000800001EB8000211DFFF7BEF801210846C1
:1059A00070BD0000100000200401002070B504004C
:1059B0004FF000002BD0194DE16A2A68D26A91425B
:1059C00026D2A069002804DB2868C06AC0F138002C
:1059D000A061134E01EB8101606906EB81018842F1
:1059E00011D1201DFFF748F82868C06AE0622969D4
:1059F000884200D9286100EB800006EB8000211D61
:105A0000FFF78AF802E02868C06AE062012070BDF2
:105A1000E16C2A68D26A9142F8D370BD1000002070
:105A20000401002070B5C068C46854B104F11800C6
:105A30000646FFF721F8144D286B50B13146134844
:105A400015E0502080F31188BFF34F8FBFF36F8FA5
:105A5000FEE7201DFFF710F8E06A2969884200D9A7
:105A600028610B4900EB800001EB8000211DFFF74E
:105A700053F8E06A2968C96A884202D90120E861BE
:105A800070BD002070BD0000100000208C050020BB
:105A9000040100202DE9F0472C4D00242746286BF7
:105AA00038B1FFF745F8286B401E2863286B40B1DA
:105AB00046E0502080F31188BFF34F8FBFF36F8F04
:105AC000FEE7A968224E0120D1B3A6F59169804670
:105AD0003068E0B1F068C46804F11800FEF7CCFF4C
