:020000040800F2
:10000000784000200D03000871530008F3480008F1
:10001000A9520008612C0008896B0008000000004C
:100020000000000000000000000000007502000851
:10003000A72C000800000000B90200080D650008A8
:1000400027030008270300082703000827030008E8
:1000500027030008270300082703000827030008D8
:1000600027030008270300082703000827030008C8
:1000700027030008270300082703000827030008B8
:10008000652C0008712C00082703000827030008CE
:100090002703000827030008270300082703000898
:1000A00027030008896500082703000827030008C4
:1000B0002703000827030008270300082703000878
:1000C0002703000827030008270300082703000868
:1000D0002703000827030008616B000827030008B6
:1000E00027030008270300082703000800F002F890
:1000F00000F0B0F80AA090E8000C82448344AAF112
:100100000107DA4501D100F0A5F8AFF2090EBAE80F
:100110000F0013F0010F18BFFB1A43F0010318473B
:10012000DCAE0000FCAE00000A444FF0000C10F8FA
:10013000013B13F0070408BF10F8014B1D1108BF65
:1001400010F8015B641E05D010F8016B641E01F805
:10015000016BF9D113F0080F1EBF10F8014BAD1C55
:100160000C1B09D16D1E58BF01F801CBFAD505E073
:1001700014F8016B01F8016B6D1EF9D59142D6D3CD
:10018000704700000023002400250026103A28BFF5
:1001900078C1FBD8520728BF30C148BF0B607047F9
:1001A0006E2900F07F82702900F0C183662909F072
:1001B0007384652909F07084672909F06D846129C9
:1001C00009F06C8403681B0A28BF41F0800169298B
:1001D00000F02C82642900F02982752900F0268223
:1001E0006F2900F04E83782900F08D83E92900F013
:1001F000E982E42900F0E682F52900F0E382EF29A4
:1002000000F04B83F82900F08C830368DB0928BFDA
:1002100041F08001632901F0A381732901F0A881D5
:10022000E32901F0B381F32901F0B8810020704780
:100230001FB501F089FA04000020002108F0B0FC8D
:10024000401C60600020002108F094FCE0601FBDAD
:1002500010B510BD01F053FA1146FFF7E9FF06F0A3
:10026000F3FF01F0B1FD03B4FFF7F2FF03BC01F0AF
:10027000DFFF0000224B19680868B0E8F00F80F338
:100280000988BFF36F8F4FF0000080F311884EF0A4
:100290000D0E70470000000006480068006880F3FB
:1002A000088862B661B6BFF34F8FBFF36F8F00DF70
:1002B00000BF00BF08ED00E0EFF30980BFF36F8FD0
:1002C0000F4B1A6820E9F00F106008B54FF050008E
:1002D00080F31188BFF34F8FBFF36F8F07F002FFDA
:1002E0004FF0000080F31188BDE8084019680868E5
:1002F000B0E8F00F80F30988BFF36F8F704700BF3D
:1003000010000020EFF30580704700000948804787
:1003100009480047FEE7FEE7FEE7FEE7FEE7FEE7E7
:10032000FEE7FEE7FEE7FEE704480549054A064BFF
:100330007047000085650008ED000008783A00204D
:1003400078400020783C0020783C00201CB50C460A
:10035000064B7B4469460090204600F0BCF90446F9
:100360000020694600F0CAF920461CBDA703000022
:1003700070B5064600F0E8F80468054630460A22E3
:10038000002100F0F5FB2C6070BD0000014A00F078
:1003900027BC0000BC01002010B5431C02E010F88F
:1003A000011B71B18107FAD14FF0013202C88C1ADA
:1003B0008C4314EAC211F9D0C01A0A0603D0C01E39
:1003C00010BDC01A10BD0A0401D0801E10BD090264
:1003D000FCD0401E10BD032A40F2308010F0030C08
:1003E00000F0158011F8013BBCF1020F624498BF88
:1003F00011F801CB00F8013B38BF11F8013BA2F125
:10040000040298BF00F801CB38BF00F8013B11F09F
:10041000030300F00784083AC0F0088051F8043B59
:10042000083A51F804CBA0E80810F5E7121D5CBFAC
:1004300051F8043B40F8043BAFF30080D20724BFDF
:1004400011F8013B11F801CB48BF11F8012B24BF73
:1004500000F8013B00F801CB48BF00F8012B7047C2
:1004600002F0FF0343EA032242EA024200F00EBC1C
:100470004FF0000200B5134694469646203922BF3D
:10048000A0E80C50A0E80C50B1F12001BFF4F7AF88
:10049000090728BFA0E80C5048BF0CC05DF804EB6A
:1004A000890028BF40F8042B08BF704748BF20F8D8
:1004B000022B11F0804F18BF00F8012B704700008D
:1004C0004FF0013C50F8042B51F8043B9A4221D1E3
:1004D000A2EB0C03934313EACC1317D150F8042B6F
:1004E00051F8043B9A4215D1A2EB0C03934313EA53
:1004F000CC130BD150F8042B51F8043B9A4209D18C
:10050000A2EB0C03934313EACC13DBD04FF00000B3
:10051000704700BFD01A01BAB1FA81F101F0180199
:1005200022FA01F0CB40C1F12001DBB2C0B2C01A07
:100530002CFA01F3D11A914311EAC311E6D17047A5
:10054000704770477047000000487047183A002015
:1005500010B5FFF7F9FF006810BD10B50446FFF7AE
:10056000F3FF046010BD70B5044685690068C106DC
:1005700001D5302600E02026C00707D070BDD4E9A1
:10058000012130469047206A401C20626D1EF6D53E
:1005900070BD70B5044685690078C00707D170BD8D
:1005A000D4E9012120209047206A401C20626D1E62
:1005B000F6D570BD09684A0501D540B27047C90536
:1005C000FCD500B2704709684A0501D5C0B2704732
:1005D000C905FCD580B2704770B50C460546012AA6
:1005E00005D02878800600D5EA69002302E00123BF
:1005F00005E05B1C934202D2E05C0028F9D1A869B7
:10060000E618C01AA861286A184428622846FFF72D
:10061000AAFF04E0D5E9012114F8010B9047B44288
:10062000F8D32846FFF7B5FF70BD00002DE9F04173
:100630000646002410687529314616A510D0FFF72C
:10064000B9FF002802DA404213A507E031688A07A3
:1006500001D512A502E0490704D511A5012401E046
:10066000FFF7B1FF00210A2206F1240709E0B0FBE1
:10067000F2FCB0FBF2F302FB1C0030307854184659
:10068000491C0028F3D123462A463046BDE8F041F4
:1006900000F076BB000000002D0000002B000000E1
:1006A0002000000011680268006A530501D5087037
:1006B0000AE0D30501D5088006E0130603D5C2176A
:1006C000C1E9000200E008600120704701694A1C8E
:1006D00002610878704700B58FB0CDE90131002183
:1006E000059105497944CDE903101146684600F0AB
:1006F00029F90FB000BD0000E5FFFFFF0A6802F80E
:10070000010B0A60704700002DE9FF5F15468A461D
:100710000446DFF8AC80F8440027D8E900103E46D4
:10072000CDE9001010E03AF816106A4602A800F071
:10073000A8FF411C07D02178890603D5E269391842
:1007400091420DD80744761C2078800602D5E069D6
:10075000B84205DDAE42E6DB3AF816000028E2D1E9
:10076000A069C01BA0612046FFF7FDFED8E900107C
:10077000CDE90010002017E03AF818106A4602A8E8
:1007800000F07FFFB0F1FF3F81460BD000250DF157
:10079000080B05E0D4E901211BF8050090476D1C0A
:1007A0004D45F7D308F10100B0428046E4DB206AF2
:1007B000384420622046FFF7ECFEBDE8FF9F0000B2
:1007C000DAA600002DE9F0418046D21D22F0070292
:1007D0000025D2E90002F52915A614D0011E72F1F8
:1007E000000106DA0023D0EB030063EB020211A63E
:1007F00008E0D8F800108B0701D50FA602E04907E2
:1008000001D50EA601251146002408F1240704E0B5
:1008100000F068FA30323A55641C50EA0102F7D110
:100820002B46324621464046BDE8F04100F0A8BACA
:10083000000000002D0000002B0000002000000040
:1008400030B4002100F1240408E002F00705D208CA
:10085000303542EA4372DB086554491C52EA03050D
:10086000F3D10468002310A2250707D5A40600D4FD
:1008700021B1C46901230DA2641EC46130BC00F023
:100880007FBA10B5044621461068FFF79CFE024669
:100890002046BDE810400023D2E7D21D22F0070118
:1008A000D1E90023CCE70000000000003000000088
:1008B000F0B40D460188090502D5214C7C4402E0C4
:1008C0001F4C7C440E34002100F1240608E002F0A5
:1008D0000F071209E75D42EA03721B097754491CAE
:1008E00052EA0307F3D102780023120704D5702DD2
:1008F00006D009B1022311342246F0BC00F040BA00
:1009000001231034F8E770B504460D4621461068FF
:10091000FFF759FE024629462046BDE870400023F5
:10092000C6E7D21D22F00703D3E90023C0E703681E
:10093000126843F0200303600823C3610023B7E774
:100940003CA500002DE9F05F894604464FF0000AFF
:10095000DFF874B1FB44C0F820A02046E168884766
:10096000002874D0252806D0D4E901219047206AB8
:10097000401C2062F1E700265F462046E168884778
:100980002028054607DB312D05D2781910F8200CF8
:1009900008B10643F1E7B00701D526F00406C4F814
:1009A0001CA00027C4F818A02A2D09D0284606F05C
:1009B000EAF938B304EB8708303DC8F8185019E05D
:1009C00059F8041B204604EB87029161E1688847CF
:1009D000012F054618D1E069002820DA26F020060C
:1009E0001DE0D8F8180000EB800005EB400030381F
:1009F000C8F818002046E1688847054606F0C3F9A4
:100A00000028EED1012F0AD02E2D08D12046E16812
:100A100088477F1C0546022F46F02006C4DBA069EC
:100A2000002803DA404246F00106A061F00701D039
:100A300026F010066C2D0BD0682D09D04C2D39D026
:100A40006A2D35D0742D35D07A2D33D016E038E0AC
:100A5000E1682F4620468847B842054609D16C2FE9
:100A600026D04FF48060E16806432046884705465B
:100A700004E06C2F1AD04FF4807006430DB3A5F13B
:100A80004100192802D8203546F400664A46294616
:100A9000204626604E46FFF783FB80B101280BD02D
:100AA000F61D26F0070000F1080956E74020E4E7AC
:100AB0008020D8E70020D6E706F104094DE7284654
:100AC00052E7206ABDE8F09FCCA400000FB40023D9
:100AD00000B589B00CA900910B99CB60214B7B44E8
:100AE0000693214B7B44079304236FF00042CDE92A
:100AF00001321E4A7A446B4608920246002009F0F1
:100B000055F809B05DF814FB70B506464FF0FF309C
:100B100015460C46324686B00091CDE90101694682
:100B20000020049004A8FFF7D1FF02460498211882
:100B300025B108B1084600E0204628600498002846
:100B40000DD0002A02DD0098884208D03246081BEA
:100B500069460094CDE9010404A8FFF7B7FF06B089
:100B600070BD0000C30A0000DB0A0000770200002D
:100B70002DE9F04791460F4680460446002614F8BA
:100B8000015B2DB100F0A6F80068405DC007F6D10A
:100B90002B2D02D02D2D18D0641E4A4639462046F2
:100BA00000F020FD27B13968A14201D1C7F80080CB
:100BB0004FF0020471050BD54042002803DDFFF71A
:100BC000C3FC0460A007BDE8F08746F48066E4E754
:100BD0000028F8DAFFF7B8FC04606FF00040F2E795
:100BE0002DE9F04115460E46040002D12C6804B9E7
:100BF0000BA4204600F075FD0444207870B1274610
:100C00003146384600F05DFD0444207810B10020E4
:100C100004F8010B38462C60BDE8F0810027F9E7A5
:100C20000000000010B5203AC0F00B80B1E8185069
:100C3000203AA0E81850B1E81850A0E81850BFF4C6
:100C4000F5AF5FEA027C24BFB1E81850A0E8185065
:100C500044BF18C918C0BDE810405FEA827C24BFB9
:100C600051F8043B40F8043B08BF7047D20728BF47
:100C700031F8023B48BF11F8012B28BF20F8023B96
:100C800048BF00F8012B70474FF000020429C0F064
:100C9000128010F0030C3FF4EDABCCF1040CBCF16E
:100CA000020F18BF00F8012BA8BF20F8022BA1EB00
:100CB0000C01FFF7DFBB5FEAC17C24BF00F8012B0A
:100CC00000F8012B48BF00F8012B7047004870471F
:100CD000183A002010B500F037FD001D10BD00BF10
:100CE000C17E000030B5B0F10A024FEA900E71F1FA
:100CF00000034EEA817EB0EB0E0061EB91014FEAFA
:100D0000101E4EEA017E10EB0E0041EB11114FEA6E
:100D1000102E4EEA016E10EB0E0041EB11214FEA4E
:100D2000104E4EEA014E10EB0E0041EB11414018FF
:100D300041F100014FEAD00040EA41704FEAD10191
:100D400010EB80054FEA810444EA907444EB0104FF
:100D50006D1944EB0404521BA3414FF0000348BF3C
:100D60000A3200D530BD401C41F1000130BD10B544
:100D70000446FFF7AFFF0068005D00F0010010BD02
:100D80002DE9F0470D4699469246044600F12408A5
:100D90000168880604D5E06921F01001216000E0B7
:100DA0000120A84201DD471B00E00027A1697A1954
:100DB00002EB0900081AA0612078C00602D4204680
:100DC000FFF7D1FB002608E0D4E901211AF806005C
:100DD0009047206A401C761C20624E45F4DB207848
:100DE000C0060AD52046FFF7BEFB06E0D4E9012184
:100DF00030209047206A401C2062381EA7F101076E
:100E0000F4DC07E0D4E9012118F805009047206AD6
:100E1000401C2062281EA5F10105F3DC2046FFF7E7
:100E2000B8FB2078000602D50220BDE8F08701203B
:100E3000FBE770472DE9FF4F0C461E464FF0FF378A
:100E40008BB0D2E90001DDF860800A908A46C1F3D8
:100E50000A5505B93D46002108464FF00000BAF199
:100E6000000F00F4400005DA00EB80004FF4400171
:100E700001EA50004FEA9059B9F1010F00DDB9467F
:100E80000A9850EA4A000ED044F61050A5F2FF35F9
:100E900045432F14B8F1000F1ED07542291E1EDDE8
:100EA000C9F100021CE0B8F1010F4FF0000001D0C1
:100EB000302103E0F24305E02154401CB042FBDB4B
:100EC00030460022002121540B99C1F80880C1E965
:100ED00000200FB0BDE8F08FBD1B6D1CDEE74A4659
:100EE00000DA694206A800F0FDFE06AB93E80700B1
:100EF00003AB83E8070050460A9901F0B3F98DE887
:100F00000700A0F500501F3800900398002D0ADD5F
:100F100042F21F014A460844002303A90390684691
:100F200001F05EFC09E0A0F500504A461F3800239E
:100F300003A90390684601F07DFC8DE807000004DA
:100F4000000C03D04FF0FF30410800E01046B8F12C
:100F5000000F03D00022009215461EE0751E05D436
:100F6000FFF7C0FE303262556D1EF9D5B34601223F
:100F7000084302D000227F1C04E02078302801D1F1
:100F800000227F1E002A099784D01DE0112D07DA68
:100F9000FFF7A8FE303262556D1C50EA0102F5D110
:100FA000084302D00098C8B10EE00021681E05E099
:100FB000235C625C63542254401E491C8142F7DB6F
:100FC000AB46A81B401E0990002004F80B000B98AC
:100FD000099AC0F80880C0E9002B7AE711264FF083
:100FE000000857E72DE9F04F88460446D21D22F04D
:100FF000070191B0D1E90001CDE90A0105F0C5FD75
:1010000002460B98C00F01D02D2007E02068810711
:1010100001D52B2002E0202101EAC000032A09901B
:1010200001D0072A05DB03464146204600F090FB2D
:101030000BE12078800601D5E06900E00620B8F1D8
:10104000650F814606D0B8F1660F18D0B8F1670F6A
:1010500070D131E00020B9F1110F009001DB1123B4
:1010600001E009F101030AAA01A90CA8FFF7E2FEB9
:10107000DDE90C70002609F10105834647E00120F7
:101080004B4600904FF000470AAA01A90CA8FFF7B1
:10109000D1FEDDE90DB00C995D46002610B909F1CD
:1010A00001000D18B9EB050003D4C0F1FF3609F1BA
:1010B0000105A5EB09002BE0B9F1010F01DA4FF0B2
:1010C00001090020B9F1110F0090484601DD1123FC
:1010D00000E003460AAA01A90CA8FFF7ABFEDDE970
:1010E0000C704D4600268346207800070AD4AB4595
:1010F00000DA5D4601A8012D04DD411911F8011C3B
:10110000302907D04F4502DA17F1040F04DA012025
:1011100082460FE06D1EEEE7002F02DCED1B3E4421
:1011200003E0781CA84200DD7D1CB81B00F1010A19
:101130004FF000472078000703D4AA4501DB4FF0A9
:10114000FF3A0021B7F1004F0DF143088DF843102D
:1011500024D002202B23002F01DA7F422D230A21E5
:10116000021EA0F1010000DC5FB197FBF1FC97FBD0
:10117000F1F201FB1C7C17460CF1300C08F801CD94
:10118000EEE7A8F1010003702188090501D545218A
:1011900000E06521A0F1010800F8011C09980FA9E1
:1011A000A1EB0807FF1D00B10120411901EBEA7016
:1011B000A1693844081A401EA0612078C00602D4F4
:1011C0002046FFF7D0F9099828B1D4E901219047CA
:1011D000206A401C20622078C00622D52046FFF7F6
:1011E000C2F91EE0002E04DBB34502DD01A8805DDC
:1011F00000E03020D4E901219047206A401C2062A1
:10120000761CAAF101005FEA000A0AD100F09CFAFC
:10121000C0680168405CD4E901219047206A401C05
:101220002062281EA5F10105DCDC07E0D4E90121DC
:1012300018F8010B9047206A401C2062381EA7F165
:101240000107F3DC2046FFF7A4F9032011B041E6C3
:101250002DE9F04F04460D46D21D22F0070089B05B
:10126000D0E900974846394605F08FFC0246F80F52
:1012700001D02D2307E02068810701D52B2302E050
:10128000202101EAC0038DF820300BB1012000E0DD
:101290000020032A824601D0072A04DB2946204683
:1012A00000F056FA3FE12078800601D40D2500E0D9
:1012B000E569C7F30A560D2D49DA00214FEA175B9D
:1012C00008464FF00000002F00F4400007DA00EB62
:1012D00080004FF4400100EBD07001EA60008115FE
:1012E000012901DD4FF0FF3100224FEA850CBCF1EE
:1012F000180F06D31346ACF118004FF08052C240CD
:1013000003E04FF4801323FA0CF30CF10C0CBCF146
:10131000200F04D3ACF1200C09FA0CF001E007FA1D
:101320000CF000294FF0004801DD18B90FE00ED194
:1013300040450CD319EB02095F4121B9404502D168
:101340009F4329EA0209BBEB175F00D0761C208877
:10135000000502D57B48784402E07A487844193881
:1013600008AA302302F80A30037C0AF10101002E9A
:101370000AF1020A53546A4602DC4FF0300101E0E0
:101380004FF031014FF001088DF8001002D0A6F2A5
:10139000FF3603E059EA470100D06B4E002D02DC16
:1013A0002178090704D54FF002082E218DF801108D
:1013B000C44600210BE0C7F303433F01C35C491C53
:1013C0006D1E02F80830052908F1010801DA002D28
:1013D000F1DC00210CE000EB1973491C1B786D1E39
:1013E000082902F808304FEA091908F1010801DA62
:1013F000002DF0DC21688B0602D516E0A8F101086B
:10140000E04505DD02EB080313F8013C302BF5D075
:10141000B8F1000F09DD02EB080313F8013C2E2B95
:1014200003D1090701D4A8F10108002D05DD3E21F3
:1014300002F808106D1E08F10108407C002E02F829
:10144000080008F1010804DA2D20764202F80800AD
:1014500002E02B2002F808000A214FF47A7086423D
:1014600008F101080BDB96FBF0F3303302F808308B
:1014700096FBF0F308F1010800FB136601E0642E0F
:101480000CDB642096FBF0F3303302F8083096FB57
:10149000F0F308F1010800FB136601E00A2E06DBF9
:1014A00096FBF1F0303002F8080008F1010896FBD5
:1014B000F1F001FB1060303002F80800A16908F17A
:1014C000010808EB050202EB0A00081AA061207867
:1014D000C00602D42046FFF746F8216A08AE01EBA9
:1014E0000A00206204E0D4E9012116F8010B9047BC
:1014F000BAF1010AF7D22078C00602D52046FFF7DC
:1015000032F86E4609E016F8010B3E280FD0D4E9F8
:1015100001219047206A401C2062B8F10108F2D2F4
:101520002046FFF736F809B00320BDE8F08F206AA7
:101530002844206203E0D4E90121302090476D1E49
:10154000EBD3F8E7919B000002FCFFFF10B5436965
:1015500013B1AFF3008001E0FFF73EF8012010BDAA
:10156000127800F124010A7000224A700122EDE78E
:1015700011684FF0FF32E9E710B5436913B1AFF3DB
:10158000008001E0FFF7C0F8012010BD128800F1D3
:10159000240182840022C2840122EDE711684FF009
:1015A000FF32E9E7426842B1016811F8013B23B11B
:1015B000521EC0E90012184670470121C160881E02
:1015C000704742685AB1C368016843B983688B4267
:1015D00005D0491E521CC0E90012002070474FF090
:1015E000FF3070472DE9F05F824615468B46002795
:1015F0000AF10104B9460078302801D09DB113E00A
:1016000014F8010B0127782803D0582801D045B1E0
:101610000AE00DB1102D07D1002714F8010B102599
:1016200002E0082500E00A250026B0460EE005FB92
:10163000080005FB06F101271FFA80F801EB1046B0
:10164000B6F5803F00D3B94614F8010B294600F0E7
:10165000BFF80028EBDABBF1000F05D00FB1641E14
:1016600000E05446CBF80040B9F1000F06D0FEF779
:101670006BFF02210160C81EBDE8F09F48EA0640EA
:10168000FAE770B516460C460546FFF723FB0368DC
:1016900093F80101012806D0FF2C0FD8185D68B11E
:1016A00001202C7070BDD3F807013246214603F2A9
:1016B000071303442846BDE8704018474FF0FF3039
:1016C00070BD30B503461D781DB10A4603E0AC423B
:1016D00001D1181A30BD12F8014B002CF7D15B1C58
:1016E000F1E730B503461D783DB10A4612F8014BCB
:1016F0001CB1AC42FAD15B1CF5E7181A30BD754637
:10170000FFF7E4FAAE4605006946534620F00700AD
:10171000854618B020B5FEF707FEBDE820404FF023
:1017200000064FF000074FF000084FF0000B21F0CB
:101730000701AC46ACE8C009ACE8C009ACE8C00998
:10174000ACE8C0098D46704700487047383A002021
:101750002DE9F0411F46044603260168072A01F4DB
:10176000006004DB08B116A505E016A503E008B18A
:1017700015A500E015A521F010002060A069C01E8D
:10178000A0610FB1401EA0612046FEF7ECFE4FB1F4
:10179000D4E9012138469047206A401C2062C01CD1
:1017A000206206E0206AFAE7D4E9012115F8010B6E
:1017B0009047761EF8D22046FEF7EBFEBDE8F0819A
:1017C0004E414E006E616E00494E4600696E6600E5
:1017D0003A2800D2303820F02002412A01D3A2F169
:1017E0003700884201D34FF0FF3070472DE9FF4F9B
:1017F00006468BB00878FF2806D0491C2D2805D056
:1018000000244FF0000908E000200CE00124F8E774
:1018100009EB8903491C00EB43090878FF28F7D13D
:1018200014B1C9F100008146107800252C46AA4663
:1018300029462D2801D02B2804D1521C2D2813D045
:10184000002082468B461078FF280FD04FF0000C06
:101850000A21521CA5FB017804FB018105FB0C1138
:10186000C5194BEB0104EEE70120EAE70021084629
:101870004FF00000BAF1000F02D000EB80004008EA
:10188000C0F38157012F01DD4FF0FF370E9955EA64
:10189000040009EB01080BD04FF0020918F5FA7F9C
:1018A00016DA4FEACA70002F706008DD012007E0E9
:1018B0004FEACA70C6E900B00FB0BDE8F08F002053
:1018C0003060FEF741FEC0F800901821084616E08F
:1018D000B8F5FA7F18DD002F02DAF748784401E006
:1018E000F6487844D0E90010C6E9001040EACA7012
:1018F0007060FEF729FEC0F80090142108460FB072
:10190000BDE8F04F08F0C5B8002108464FF00000D0
:10191000B8F10001099002DAC7F1000200E03A468E
:1019200001DAC8F1000106A800F0DCF906AB93E883
:10193000070003AB83E8070044F23E005BEA0401C2
:101940000090584604D144F21E012C465D46009199
:10195000210C0904014306D10099240444EA1544EA
:101960002D041039009104F07F41014306D1009904
:10197000240244EA15642D020839009104F07041F4
:10198000014306D10099240144EA15742D01091F71
:10199000009104F04041014306D10099A40044EABB
:1019A0009574AD00891E009104F00041084304D1F4
:1019B00000986D196441401E00904FF001033A46B3
:1019C0006846B8F1000FCDE9014503A902DD00F03A
:1019D00046FF01E000F019FFBAF1000F04460D4682
:1019E00001D084F00044002108464FF0000009991E
:1019F00040F2FF77484010F00C0F07D124F0004070
:101A0000284303D0C4F30A50B84212D1FEF79CFD1C
:101A1000C0F80090C4F30A50B8420AD1A8487844EC
:101A2000D0E90010C6E9001004F0004108437060DE
:101A300042E7C6E900543FE72DE9FF4F1F464FF04C
:101A4000000A4FF0FF38454691B0D7E90146CDF87E
:101A50003CA0FFF779FEC0680168405C1090B9694E
:101A600012986D1C8847396A814688470028F6D14C
:101A7000B9F1FF3F0AD0002E24F4D06411DDB9F192
:101A80002B0F08D0B9F12D0F0BD102E0404615B055
:101A900013E744F48064B96912986D1C8847761E78
:101AA0008146600504A901D52D2000E02B20002EE1
:101AB00001F1010B0DF130088DF810003FDDB9F197
:101AC000690F08D0B9F1490F05D0B9F16E0F02D0F6
:101AD000B9F14E0F1CD13B4601A8009580E8500299
:101AE000DDE912126FF0020008F064F8C11CCED1DB
:101AF0000EE0B96912986D1C884781461398761ECE
:101B000044F4007405600F98401C002E0F9016DD01
:101B1000B9F1300FEDD0B9F1780F02D0B9F1580F0B
:101B20000DD10F9801280AD13B46CDE90054DDE9DB
:101B30001212001F029608F03BF8C11CA7D11099A1
:101B400089453ED144F0800406E01399681CAAF14F
:101B5000010A44F400740860B9696D1C1298761E7D
:101B6000884730288146F0D02BE01099894505D16F
:101B7000200603D4761E44F0800418E0484605F0A1
:101B800002F908B3761E0DF123018B4544F400746D
:101B900008D2A9F130000BF8010B200607D5AAF1F5
:101BA000010003E0200602D40AF101008246A005EC
:101BB00002D51399681C0860B96912986D1C884792
:101BC0008146002ED1DC53E0002E51DDB9F1650FC6
:101BD00002D0B9F1450F4BD1A00549D5B9696D1CAB
:101BE0001298761E24F440748847002E81460CDD3E
:101BF0002B2804D0B9F12D0F07D144F48074B969B2
:101C000012986D1C8847761E8146E00501D52D216E
:101C100000E02B2108F8011BCDF8008021E0761EA2
:101C20000DF13901884544F400740CD2A9F130005B
:101C300010F0FF0088F8000002D10099884509D90A
:101C400008F1010806E0E00501D51E4801E042F276
:101C50000F708246B96912986D1C884781461398A7
:101C60000560002E04DD484605F08DF80028D6D129
:101C7000F96912988847FF2053468BF8000088F8CE
:101C8000000000200A900B9004AA0CA90AA8FFF7F4
:101C9000ADFDA00502D46FF00100F8E614F0240FAA
:101CA00012D0E0071CD13868DDE90A12031D3B6041
:101CB0000068C0E9001213E0449700003697000066
:101CC000FA950000F1D8FFFF0AA9684604F0EAFF80
:101CD000E00705D13868009A011D3960006802608C
:101CE0002846D4E62DE9F047814616468AB03548A5
:101CF00078440DC88DE80D0032487844801C03AC50
:101D00000DC884E80D0041F69B300844372190FB54
:101D1000F1F290FBF1F5A5F1800501FB12041B3CEB
:101D200002D56442012000E00020DFF898A0804640
:101D30000027FA44AAF1BE0A0EE0E0070AD03246B4
:101D4000684607EB470101230AEB810100F072FDB1
:101D50008DE8070064107F1C002CEED1194F7F44E2
:101D6000AE3F19E0E80715D007EB04100DF1180A93
:101D700090E80E008AE80E00C068F04201D1981980
:101D800008903246012306A903A800F053FD03ABD7
:101D900083E807006D10641C002DE3D14FF00103B0
:101DA00032466946B8F1000F03A802D000F018FDD2
:101DB00001E000F03FFDC9E90001C9F808200AB0C0
:101DC000BDE8F0878892000010B50446AFF30080AC
:101DD0002046BDE81040FEF746BA00002DE9FF4F4F
:101DE0001F464FF03C0987B04FF00042DDE9141068
:101DF00001F10108DDF858A002EA405003900020EC
:101E000005908346054604460490B969461E089825
:101E10008847AAF1010A0290BAF1000F3BDD02984F
:101E20002E2815D01021FFF7D3FC00282EDB4FF011
:101E3000010B0599014317D0B9F1000F0BDB4A469E
:101E4000C11700F0FBF905430C43A9F1040905E0B3
:101E5000012004900BE008B145F001050120059038
:101E6000049820B9361D02E0049800B1361FB96904
:101E7000089808F101088847BBF1000FAAF1010A90
:101E80000290C9D00999C1F80080C5E7029870286E
:101E900008D0502806D0F96908988847BBF1000F90
:101EA00014D04FE0002002900120BBF1000F0490FD
:101EB00009D0B969089808F101088847AAF1010911
:101EC000B9F1000F07DCF969089888476FF0010045
:101ED0000BB0BDE8F08F2B2804D02D280CD14FF08B
:101EE000FF300490B969089808F101088847A9F102
:101EF0000109B9F1000FE6DD411CE4D00A21FFF72A
:101F000067FC0028DFDB029908F1010801EB810181
:101F100000EB41000290B969089888470A21FFF751
:101F200057FC099AA9F10109B9F1000FC2F8008024
:101F300001DD0028E7DAF9690898884704990298D2
:101F400000FB016655EA040004D004F0404109009A
:101F500002D006E0039898E0A40044EA9574AD002E
:101F6000B61E04F00041080002D16D196441761ECE
:101F7000159810F0240F03D04FF00B095C4803E0D4
:101F80004FF028096FF07D008246564507DAAAEB2C
:101F900006018944B9F1410F01DD4FF041090120EB
:101FA0000021A9F1010200F049F9024628400B4640
:101FB0002140084301D0012100E00021501E029180
:101FC00043F1FF3128402140084301D0012000E0C7
:101FD00000200299834651EA0B014FD000210846A8
:101FE0004FF00000039900F4400039B100EB80008D
:101FF0004FF4400100EBD07001EA60008015012829
:1020000002DD4FF0FF3000E013D0401C36D00298C4
:1020100060B3BBF1000F0CD14A460120002100F053
:102020000DF928402140084301D0012000E00020A4
:10203000E0B101204A46002100F000F903464019B2
:102040000A4661412D1A8C4111D3B9F1400F09DDC7
:10205000159810F0240F02D0AAF1340603E0AAF17B
:10206000170600E0761C00254FF0004406E05B1EDA
:1020700042F1FF3220EA030521EA0204CAF101001D
:10208000B04206DA1B4903980843019000200090F3
:102090000EE0039AC4F3D321E80A0A43164940EA42
:1020A00044500A433146CDE90002684604F060FE20
:1020B000159810F0240F0BD01598C00715D138686B
:1020C000DDE90012031D3B600068C0E900120CE06E
:1020D00002A8694604F0E6FD1598C00705D13868E6
:1020E000029A011D3960006802604046F0E6000077
:1020F00002FCFFFF0000F07F0000F03F2DE9FF4FE2
:1021000092461D4685B04FF00041DDE9124BDDE9F6
:1021100014727F1E01EA4B50414940F0FF4940EAEA
:102120000108002122F020004928049102D04E2805
:1021300028D04CE03BA0012607C88DE80700A9691C
:102140000698641C88477F1E014606D41DF80600C9
:1021500018B121F0200181420BD0E9690698884727
:10216000032E34D0082E32D06FF0010009B0BDE844
:10217000F08F761C032E01D0082EE0D1601CCAF827
:102180000000DCE7A9690698641C88477F1E2AD4F2
:1021900020F02000412826D1A9690698641C8847B0
:1021A0007F1E20D420F020004E281CD1A96906985B
:1021B000641C88477F1E48F4002849F48009CAF847
:1021C000004001D4282806D0E969069888475FEACC
:1021D000CB7012D022E0A9690698641C88477F1E44
:1021E00001D4002803DAE96906988847BCE7292862
:1021F000F1D1641CCAF80040E9E71BF0240F07D0B6
:1022000028680499031D2B600068C0E9001805E0E8
:102210002868021D2A600068C0F800902046A5E7E3
:102220000000F07F494E46494E49545900000000D5
:1022300001491820ABBEFEE726000200B2F12003E0
:102240000AD5C2F1200301FA02F120FA03F300FAE1
:1022500002F041EA0301704700FA03F14FF0000079
:10226000704770475FEA400C08BF91F0000F4FEADB
:102270008C234FEAC12243EA51514FEA1C5018BF48
:1022800000F5F0404FEA300018BF41F000415FEA2E
:102290006C5C00F02980BCF1FF3F08BF40F080403B
:1022A0007047130C06BF12044FF0100C4FF0000CD7
:1022B000130E04BF12020CF1080C130F04BF12011D
:1022C0000CF1040C930F04BF92000CF1020CD30F1D
:1022D00004BF52000CF1010C11464FF00002A0F1B6
:1022E0001F00A0EB0C00704711F0004F08BF7047B3
:1022F00031F000413FF4D5AF0B0C06BF09044FF09D
:10230000100C4FF0000C0B0E04BF09020CF1080C6E
:102310000B0F04BF09010CF1040C8B0F04BF8900E3
:102320000CF1020CCB0F04BF49000CF1010CCCF1F5
:102330002003A0EB0C0022FA03F302FA0CF241EAAC
:10234000030100F10100704720F07F4C80EA030098
:1023500023F07F47ACEB070303F57C5300F000400C
:1023600003F1FF032DE980494FEA154B09B44FEA09
:10237000144325EA0B4E24EA03480FF2042606EB29
:10238000132749083E785FEA320203FB0667C7F568
:10239000000707FB06F64FEA54374FEAD64606F128
:1023A000020607FB066CCCF1005C4FEA1C472CEAE6
:1023B000074C07FB06F40CFB06F504EB15464FEA49
:1023C000961634BF00204FF000404FEAD13706FB8D
:1023D00007FC4FEA1C4C0CFB0BF7D21B03FB0CF762
:1023E00061EB07010CFB0EF7B0EB074072EB1742F5
:1023F0000CFB08F734BFA2EB0742B2EB074261EBDC
:1024000017414FEA0C444FEA910706FB07FC4FEADD
:102410001C4C0CFB0BF7B0EBC74072EB573203FBC5
:102420000CF734BFA2EBC742B2EBC74261EB5731A6
:102430000CFB0EF7B0EBC70072EB57720CFB08F702
:1024400034BFA2EBC702B2EBC70261EB5771039F27
:102450004FEA816141EA921104EBCC044FEAD13793
:102460004FEA826206FB07FC42EA90124FEA806064
:102470004FEA1C4C0CFB0BF7D21B03FB0CF761EB78
:1024800007010CFB0EF7B0EB074072EB17420CFB99
:1024900008F734BFA2EB0742B2EB074261EB1741EA
:1024A0004FEA8C554FEA910704EB9C2406FB07FC8E
:1024B0004FEA1C4C0CFB0BF7B0EBC74072EB5732EA
:1024C00003FB0CF734BFA2EBC742B2EBC74261EB90
:1024D00057310CFB0EF7B0EBC70072EB57720CFBD9
:1024E00008F734BFA2EBC702B2EBC70261EB57712A
:1024F00015EB4C254FEA816141EA92114FEA826265
:102500004FEAD13742EA901206FB07FC44F100047F
:102510004FEA80604FEA1C4C0CFB0BF7D21B03FB0D
:102520000CF761EB07010CFB0EF7B0EB074072EB09
:1025300017420CFB08F734BFA2EB0742B2EB07428D
:1025400061EB174115EB1C154FEA813141EA9241CD
:102550004FEA823242EA90424FEA80304FEA0C76EC
:1025600044F1000448EA03434EEA0B484FF0000EE2
:10257000B2EB080C71EB030724BF624639464EEB01
:102580000E0E4FF0000B0018524149414BEB0B0B64
:10259000B2EB080C71EB03077BF1000B24BF624622
:1025A00039464EEB0E0E4FF0000B001852414941D8
:1025B0004BEB0B0BB2EB080C71EB03077BF1000B41
:1025C00024BF624639464EEB0E0E51EA020718BF91
:1025D00046F0010616EB0E7655F1000254F10001AB
:1025E00003D5BDE88901BDE80088BDE88901BDE8E3
:1025F0000048B619524141EB0101A3F101037047B4
:1026000080807F7E7D7C7B7A79787776767574732F
:10261000727171706F6E6E6D6C6C6B6A6A696868EE
:10262000676666656464636362616160605F5F5E84
:102630005E5D5D5C5C5B5B5A5A59595858575756FA
:10264000565555555454535352525251515050505F
:102650004F4F4F4E4E4D4D4D4C4C4C4B4B4B4A4AB1
:102660004A494949484848474747474646464545F5
:10267000454444444443434343424242424141412E
:1026800046EA0646A3F570534FEA164646EA425616
:102690004FEAD22242EA415210B54FEAD121A3F1CA
:1026A000010300F02FF820F0004000F1020C00F0D0
:1026B000004701EB00501146BCF5006F40EA0700EF
:1026C00000D210BDBAF1000F0AD01CB503B44FF010
:1026D00004004FF004014FF000000FBCBDE81040B3
:1026E0004FF00001BBF1010FB9BF04484FF0FF31BB
:1026F0000348002140EA070010BD00BFFFFFEF7F45
:102700000000F07F002B9C4630D477002BD01CB506
:102710004FEA370703B44FF010004FF01001BAF141
:10272000000F06D0BCF1000FDCBF40F0080040F005
:1027300008014FF000000FBCBDE810400BF1010B89
:10274000BBF1010F08BF5FEA170722BF12F10102B8
:1027500011F101014FF0004143F1000300F000408E
:1027600043EA00007047F9D35708D0E746EA064627
:1027700013F1400F4FEA16461FDD13F1200FDFBFA4
:1027800016430A46002120335B42BED0C3F1200726
:1027900046EA064602FA07F74FEA164646EA0706F1
:1027A000C3F1200722FA03F201FA07F721FA03F135
:1027B0004FF0000342EA0702A7E746EA020646EAAC
:1027C00006464FEA164646EA0106BCBF46EA0646FA
:1027D000360C4FF000034FF000024FF0000194E779
:1027E0002DE9804C9A46934670B491E8380007C8AA
:1027F00031EA400C48BF34EA430C03D5FFF7A4FD8F
:10280000FFF780FFF0BCBDE8008C2DE9804C9A46B4
:10281000934670B491E8380007C831EA400C48BFCD
:1028200034EA430C03D5FFF78FFDFFF729FFF0BC17
:10283000BDE8008C2DE9804C9A46934670B491E82F
:10284000380007C810F0804F08BF13F0804F03D145
:1028500000F01AF8FFF756FFF0BCBDE8008C2DE938
:10286000804C9A46934670B491E8380007C810F03F
:10287000804F08BF13F0804F03D100F005F8FFF739
:10288000FFFEF0BCBDE8008C20F07F4780EA03002B
:1028900023F07F4C07EB0C03A3F57C5300F00040C2
:1028A000A3F1FE0392F0000F00F0B38095F0000F4B
:1028B00000F077802DE901494FEA11404FEA1446B4
:1028C00021EA004800FB06FC24EA064708FB06F65E
:1028D00007FB08F800FB07F718EB06484CEB164C13
:1028E0004FEA124B18EB07484FEA15464CEB1740DE
:1028F00022EA0B4E0BFB06FC25EA06470EFB06F60A
:1029000007FB0EFE0BFB07F71EEB064E4CEB164CBF
:102910004FF000061EEB074E4CEB174B18EB0B0865
:1029200040F1000018EB0E0B58EB000840F10000DE
:102930008F1A4FF000013CBFC943661B14BFB5EBB3
:10294000040C00213CBFC943F61B4FEA17444EEA72
:102950008E0E27EA04454FEA1C4704FB07622CEA67
:10296000074C05FB07F70CFB05F604FB0CFC16EB0C
:10297000074642EB174216EB0C4642EB1C421BEBA0
:10298000060658EB0202414146EA9E0601D5BDE823
:102990000189B619524141EB0101A3F10103BDE8E0
:1029A00001894FEA14454FEA114724EA054621EA16
:1029B000074C05FB07F406FB07F70CFB06F105FBCC
:1029C0000CFC11EB074144EB17444FEA124711EBA3
:1029D0000C4144EB1C4422EA074C05FB07F206FBC2
:1029E00007F70CFB06F605FB0CFC16EB074642EB63
:1029F000174216EB0C4642EB1C456A1854F10001D5
:102A000048BF7047B619524141EB0101A3F10103E0
:102A1000704795F0000F37D04FEA11424FEA144744
:102A200021EA024624EA074C02FB07F106FB07F7FE
:102A30000CFB06F402FB0CFC14EB074441EB1741C2
:102A40004FEA154714EB0C4441EB1C4125EA074CB7
:102A500002FB07F506FB07F70CFB06F602FB0CFC76
:102A600016EB074645EB174516EB0C4645EB1C42AB
:102A7000121951F1000148BF7047B619524141EB9C
:102A80000101A3F1010370474FEA14454FEA1147D2
:102A900024EA054621EA074C05FB07F106FB07F788
:102AA0000CFB06F24FF0000605FB0CFC12EB074294
:102AB00041EB174112EB0C4251EB1C4148BF7047F0
:102AC000921841EB0101A3F1010370470EB504F028
:102AD000FBFB5949DFF8649107468846A9F1020AD1
:102AE0004FF07E5006F060FFDFF854B102900A37D5
:102AF000384604F0D2FB514BCDE900A91B1F9A1EAA
:102B0000911E881E02F08CF94C4C0C3C60890E38EA
:102B10006081B4F9060006F0DBFA05460E46B4F90A
:102B2000020006F0D5FA2A46334604F043FA454A35
:102B3000454B06F039F90022444B06F01DFB06F028
:102B400045F8A061B4F90A0006F0C2FA6FF00E026F
:102B500006F0D8FF00223E4B06F00EFB3D4A3E4BEE
:102B600006F00AFB06460D46206B06F02FFD3246A6
:102B70002B4606F05DF806F029F8E0610298E1695D
:102B800006F014FEA1690546404606F00FFE2946F0
:102B900006F048FD2063216B594503DA206B2F496D
:102BA000884201D300202080208878B3206B234DF9
:102BB00048356860284603F017F9E86880F000405F
:102BC00006F0A4FD6082B4F91400618A00EBD070B5
:102BD00001EB6000E081B4F9140000EBD071608A71
:102BE000A0EB61002082B4F90E00642801DD6420AE
:102BF00005E0B4F90E106FF06300814200DAE08165
:102C0000B4F91000642802DD642006E00FE0B4F996
:102C100010106FF06300814200DA2082E08940B238
:102C200002F052FB208A40B202F078FB5FE70020FE
:102C300002F04AFB0020F7E70AD7233CC00000203F
:102C40000000484244174154FB210940008066C0FF
:102C500000409F407B14AE47E17A843F000048C2A9
:102C6000FEE70000014800F0BFB80000483900202E
:102C7000014800F0B9B800008C39002030B590F858
:102C800040500124AC40C56B6C60046863604368CD
:102C9000102B036803D099600068C26030BD9A6051
:102CA0000068C16030BD70470021012803D00228B0
:102CB00007D00020704706480268506A516200B28F
:102CC000704704480268506A5162404200B270473F
:102CD00070380020B838002010B53C21074801F0BA
:102CE000C7F93C21064801F0C3F9044900200968EE
:102CF000486203490968486210BD0000703800202E
:102D0000B838002072B6FEE710B590F82110002206
:102D1000022905D00421816380F82020012010BD04
:102D200001680B6823F00E030B6001680B6823F049
:102D300001030B6090F84030C46B012101FA03F3EA
:102D4000636080F8211080F82020104610BD00003C
:102D500010B590F821100024022903D004218163CA
:102D600001243DE001680A6822F00E020A60016851
:102D70000A6822F001020A601A4A0168914201D1F0
:102D8000012121E0174A1432914201D110211BE0A8
:102D9000144A2832914201D1891515E0114A3C327A
:102DA000914201D189140FE00E4A5032914202D172
:102DB0004FF4803108E00B4A6432914202D14FF463
:102DC000801101E04FF08071064A083A51600121FC
:102DD00080F82110002180F82010416B01B1884754
:102DE000204610BD080002402DE9F05FC16B0C6861
:102DF00001680B68D0F840C0042202FA0CF2494D79
:102E0000DFF824A1494E4A4FDFF828B1DFF828E166
:102E100022422CD05A072AD50A68920603D40A689F
:102E200022F004020A600168A94201D1042219E0DB
:102E3000514501D1402215E0B14202D14FF48062E8
:102E400010E0B94202D14FF480420BE0594502D163
:102E50004FF4802206E0714502D14FF4800201E078
:102E60004FF080622F4908394A60C16A3BE04FF059
:102E7000020808FA0CF818EA040F4FF000094FF0A6
:102E8000010235D05FEA837832D50B689B0605D402
:102E90000B6823F00A030B6080F821200168A94227
:102EA00001D1022219E0514501D1202215E0B142A1
:102EB00002D14FF4007210E0B94202D14FF4005237
:102EC0000BE0594502D14FF4003206E0714502D1C2
:102ED0004FF4001201E04FF00072124908394A60C5
:102EE00080F82090816A00291AD0BDE8F05F084779
:102EF000082505FA0CF5254212D01B0710D50B68E2
:102F000023F00E030B6090F84010C36B02FA01F13E
:102F10005960826380F8212080F82090016BE2E7FD
:102F2000BDE8F09F080002401C0002403000024053
:102F300044000240580002406C00024030B528B303
:102F400008C8134914221944B1FBF2F18900C16386
:102F500010498163022141771A6843F6F0718A4370
:102F6000D0E900142143D0E902452C4321430469F0
:102F7000214344692143846921431143196000219D
:102F80004163012242770177084630BD012030BD00
:102F9000F8FFFDBF0000024070B5044690F8200025
:102FA000002501280CD0012084F8200094F821602D
:102FB0000020012E06D084F820000225284670BD8E
:102FC000022070BD022684F82160A0632068066894
:102FD00026F0010606602046FFF750FEE06A002852
:102FE0002068016802D041F00E0106E021F00401E2
:102FF00001602068016841F00A01016020680168F1
:1030000041F001010160D9E72DE9F84FDFF8B891EF
:103010000024A9F1040B23460F2709F1040AABF1A0
:10302000040EC9E00125A5402A40AA427DD1674E81
:10303000D1F804C0ACEB0608B44532D014DCBCF1C6
:10304000030F3AD009DCBCF1000F2AD0BCF1010F0C
:103050001CD0BCF1020F31D11DE0BCF1110F17D013
:10306000BCF1120F2AD119E0B8F5881F19D006DC7F
:10307000B8F5803F15D0B8F5801F1FD111E0B8F525
:10308000001F0ED0B8F5041F18D10AE0CB6815E078
:10309000CB681B1D12E0CB6808330FE0CB680C3304
:1030A0000CE08B682BB1012B4FF0080303D0456176
:1030B00004E0042302E0056100E00023FF2A01D8B8
:1030C000064601E000F104064FEA840501D9A5F1A6
:1030D0002005D6F8008007FA05FC28EA0C0803FA58
:1030E00005F548EA0508C6F800804D68ED0062D590
:1030F000374DAE6946F00106AE61AD6924F00306B6
:1031000005F001050095334D06EB050CDCF8085081
:10311000A607360F07FA06F825EA0805DFF8B88093
:10312000404503D14FF0000817E044E0DFF8AC80E1
:10313000404502D14FF001080FE0DFF8A480404580
:1031400002D14FF0020808E0DFF89880404502D134
:103150004FF0030801E04FF0040808FA06F848EAC7
:103160000508CCF808804D68D9F80060ED024D469E
:1031700001D5164300E096432E604D68DAF80060F2
:10318000AD02554601D5164300E096432E604D68CA
:10319000DBF80060AD035D4601D5164300E09643C1
:1031A0002E604D68DEF80060ED03754601D51643CC
:1031B00000E096432E60641C0D682A46E5407FF4CB
:1031C00031AFBDE8F88F0000080401400000111085
:1031D000001002400000014000080140000C0140C6
:1031E00000100140001401408068084000D0012018
:1031F00070470AB1016170470904FBE70148806824
:10320000704700000000002070B5040025D094F83D
:103210003D00002520B984F83C50204600F07EFA9D
:10322000242084F83D002068016821F0010101603C
:103230002068016841F4004101602068016821F4C0
:103240000041016000F014FC4D4A6168914201D8D0
:103250004C4900E04C49884201D2012070BD4B49E5
:103260002368B0FBF1F15E6826F03F060E435E6016
:103270006368934206D94FF4967359434FF47A73B7
:10328000B1FBF3F12368491C1E6A26F03F06314367
:1032900019626168914210D84900401EB0FBF1F2FA
:1032A000521CC2F30B02042A01D2042022E0B0FB1C
:1032B000F1F0401CC0F30B001CE0A268F2B301EB7C
:1032C000C10303EB0116431EB3FBF6F35B1C43F48F
:1032D00080431B0549D092B301EBC10202EB0111FF
:1032E000401EB0FBF1F0401CC0F30B0040F48040E6
:1032F00040F400402168CA694CF6FF739A431043BA
:10330000C861D4E9071001432068026822F0C002B6
:1033100011430160D4E9030101432068826848F247
:10332000FF339A4311438160D4E9050108432168C2
:10333000CA6822F0FF021043C86001E00EE016E008
:103340002068016841F0010101602564202084F8B3
:103350003D00256384F83E50002070BD01EB41061E
:10336000431EB3FBF6F35B1CB3E70120C2E701EB9E
:103370004101401EB0FBF1F0401CC0F30B00B7E769
:10338000A086010080841E0000093D0040420F001D
:103390002DE9FF4F83B00025DDE910799A46934669
:1033A0000446DDF848800095FFF728FF064694F8AC
:1033B0003D0020287CD1192301228849204600960F
:1033C00001F0AEFB0028F5D194F83C0001286FD045
:1033D000012084F83C0020680168C90703D1016816
:1033E00041F0010101602068016821F40061016081
:1033F000222084F83D00402084F83E002564676266
:10340000A4F82A90608D20857548E062CDE9008699
:1034100053465A462046049901F084FA00287CD18C
:10342000208DDFF8C091202768B1012814D0022830
:10343000206801681ED041F4806101602068416904
:1034400080690090BCE02068416981690091016851
:1034500041F400710160B3E02068016821F48061EB
:10346000016072B62068416981690091016841F488
:1034700000710AE041F40061016072B620684169A0
:1034800081690091016821F48061016062B697E072
:10349000032865D801280CD0022843464FF00002CB
:1034A0004946204600960BD001F03AFBA8BB0CE041
:1034B00091E032464146204601F0D8FB68BB72E0FD
:1034C00001F02EFB48BB72B633E02068016821F49E
:1034D0008061016072B620680069616A0870606A84
:1034E000401C6062208D401E2085608D401E6085DE
:1034F0003D4846F2A8110068B0FBF1F0C0EBC000F7
:1035000000EB80000090401E009007D020684069CA
:10351000C04340070DD50098F5E727E044F8305F39
:103520006773A573206940F02000206162B625739F
:103530001CE02068016841F40071016020680069A6
:10354000616A0870606A401C6062218D491E218595
:10355000618D491E618562B621680969017026E0A6
:1035600032464146204601F081FB18B1012007B0E8
:10357000BDE8F08F20680069616A0870606A401CCD
:103580006062208D401E81B22185608D401E608565
:1035900020684269D243520712D4032903D101683B
:1035A00021F48061016020680069616A0870606AC6
:1035B000401C6062208D401E2085608D401E60850D
:1035C000208D00287FF464AF84F83D7084F83E506D
:1035D00084F83C50CBE70220C9E70000020010004D
:1035E0000000FFFF040001000C0000202DE9FF4F48
:1035F00083B09A46DDE9119793460446DDF8408092
:10360000FFF7FCFD054694F83D0020287FD11923E3
:10361000012240492046009501F082FA002876D127
:1036200094F83C00012872D0012084F83C00206806
:103630000168C90703D1016841F0010101602068F8
:10364000016821F400610160212084F83D004020E0
:1036500084F83E0000262664C4F82480A4F82A904A
:10366000608D20852C48E062CDE9007553465A46AE
:103670002046049901F0D4F970B930E02A46394661
:10368000204601F02BFB58B1206C042804D120689F
:10369000016841F400710160012007B0BDE8F08FBE
:1036A000606A216800780861606A401C6062218D50
:1036B000491E89B22185628D521E62852268536936
:1036C000DB435B070BD469B100781061606A401C72
:1036D0006062208D401E2085608D401E6085208D9B
:1036E0000028CBD12A463946204601F0EDF90028C2
:1036F000CAD154F83D0B016841F4007101602020EB
:1037000004F81E09E67766770020C6E7FFE7022087
:10371000C3E70000020010000000FFFF10B586B0F4
:1037200000210091019102910391006810498842A3
:103730001BD1104CA06940F00800A061A069694647
:1037400000F0080004904FF44060009012200190B7
:10375000032003900848FFF757FCE06940F480001D
:10376000E061E06900F48000049006B010BD000044
:103770000058004000100240000C014002488168DF
:10378000027811448160704700000020074810B59E
:10379000016841F010010160032000F0A1F80F2042
:1037A00000F006F800F04AF8002010BD00200240AA
:1037B00030B505461C4887B0816941F400618161DC
:1037C000806906A900F40060009001A800F030F9BB
:1037D00000F05EF91549164AB0FBF1F11548491E93
:1037E0000260416040F2E7320021C0E903218160BC
:1037F000816100F049FB040012D10E4800F072FB19
:1038000004000DD1192000F03DF8102D07D2002240
:103810002946192000F044F80748056000E001241B
:1038200007B0204630BD00000010024040420F00AB
:10383000002C0140D0390020040000200F4808B5BA
:10384000816941F001018161816901F0010100910B
:10385000C16941F08051C161C069002200F080500F
:1038600000900F21901E00F01BF80548416821F0E0
:10387000E06141F00071416008BD000000100240AD
:1038800000000140002809DB00F01F0201219140E7
:103890004009800000F1E020C0F8001170470000EE
:1038A000F0B40E4B1B680C46C3F30223C3F10705AB
:1038B000042D00D90425191D072901D2002300E099
:1038C000DB1E012606FA05F1491E214099409E4063
:1038D000761E16403143F0BC03F06BB90CED00E0EE
:1038E000064900F0070208684FF6FF03184040EA57
:1038F0000220034A10430860704700000CED00E00E
:103900000000FA052DE9F0470F46050061D0434E4F
:10391000306800F00700B84209D2306820F0070094
:1039200038433060306800F00700B84251D1286851
:103930003B4C810712D5400703D5606840F4E06036
:1039400060602878000703D5606840F460506060CC
:103950006068A96820F0F000084360602878C0071C
:1039600028D06868012810D02168022810D0890763
:1039700000292EDA616821F0030101436160FFF73D
:103980003DFC804641F288390DE021688903EFE76C
:103990008901EDE7FFF732FCA0EB0801494502D9A8
:1039A0000320BDE8F0876068696800F00C00B0EBA8
:1039B000810FEFD1306800F00700B8420BD93068B2
:1039C00020F0070038433060306800F00700B8424C
:1039D00001D00120E5E72878400705D56068E9684F
:1039E00020F4E060084360602878000706D560682E
:1039F000296920F4605040EAC100606000F058F886
:103A00006168084AC1F30311515CC8400649086067
:103A100006480068FFF7CCFE0020C2E70020024005
:103A200000100240FA9B00080C0000200400002057
:103A30000F2202600C4A536803F00303436053688B
:103A400003F0F0038360536803F4E063C3605268DB
:103A50004FF4E06303EAD20202610448006800F018
:103A6000070008607047000000100240002002407C
:103A70000448054900684968044AC1F30221515CC1
:103A8000C84070470C000020001002400A9C00084B
:103A90000448054900684968044AC1F3C221515CE1
:103AA000C84070470C000020001002400A9C00082B
:103AB0000E4A51680E4801F00C03042B11D0082B5C
:103AC0000FD10C48C1F38343C903C05C0AD55168C8
:103AD000084AC1F34041921E515C054A5043B0FB75
:103AE000F1F070470449484370470000001002405D
:103AF00000127A00EA9B000800093D002DE9F84F0A
:103B0000040070D02078C04DC00749D06868C0F369
:103B10008100012807D06868C0F38100022809D11C
:103B20006868C00306D52868800339D56068002816
:103B3000E7D035E06068B0F5803F0BD010B1B0F54C
:103B4000A02F11D0286820F480302860286820F445
:103B5000802002E0286840F480302860606890B1DE
:103B6000FFF74CFB06460AE0286840F480202860F6
:103B7000F0E700BFFFF742FB801B642873D828687A
:103B80008003F7D50CE0FFF739FB064605E000BFE0
:103B9000FFF734FB801B6428F0D828688003F7D433
:103BA00020789A4E80074FF001094FF0000839D570
:103BB000686810F00C0F07D06868C0F38100022815
:103BC00009D16868C00306D42868800714D5206925
:103BD000012808D110E02069B0B1C6F80090FFF7C5
:103BE0000DFB074605E00AE1FFF708FBC01B0228B2
:103BF000C4D828688007F7D52868616920F0F800E4
:103C000040EAC10028600DE0C6F80080FFF7F6FA30
:103C1000074604E0FFF7F2FAC01B022823D8286801
:103C20008007F7D4207800072CD57948A169D9B14D
:103C3000C0F80090FFF7E2FA074604E0FFF7DEFA6B
:103C4000C01B02280FD8686A8007F7D571484FF467
:103C5000FA510068B0FBF1F0009000BF0098411EDF
:103C60000091FAD20EE080E0C0F80080FFF7C6FABB
:103C7000074604E0FFF7C2FAC01B022875D8686A3D
:103C80008007F7D42078400760D5E8690027C00096
:103C900008D4E86940F08050E861E869012700F045
:103CA000805000905C480168C90513D401688346C0
:103CB00041F480710160FFF7A1FA824606E000BF7F
:103CC000FFF79CFAA0EB0A0064284ED8DBF800004E
:103CD000C005F5D5E06801280AD008B1052813D041
:103CE000286A20F001002862286A20F0040002E01F
:103CF000286A40F001002862E06841F2883B98B1F0
:103D0000FFF77CFA82460BE0286A40F00400286244
:103D1000EEE700BFFFF772FAA0EB0A0159455AD847
:103D2000286A8007F6D50CE0FFF768FA824605E0BE
:103D3000FFF764FAA0EB0A0159454CD8286A8007BE
:103D4000F6D41FB1E86920F08050E861E06988B3DB
:103D50006968C1F38101022944D00228C6F8608055
:103D600004D0FFF74BFA044638E034E0FFF746FA98
:103D7000074604E0FFF742FAC01B02282BD8286848
:103D80008001F7D4206AB0F5803F05D16868A1684A
:103D900020F4003008436860D4E9080108436968EA
:103DA00021F4741108436860C6F86090FFF726FAA2
:103DB000044606E025E000BFFFF720FA001B0228BA
:103DC00009D828688001F7D51BE000BFFFF716FA75
:103DD000001B022802D90320BDE8F88F2868800163
:103DE000F4D40EE00128F7D06868226A00F480312C
:103DF000914204D1616A00F47010884201D0012020
:103E0000EAE70020E8E7000000100240000042421C
:103E1000800442420C000020007000407047704750
:103E200070B590F83C20012A26D0012480F83C404F
:103E3000022280F83D2003685A689D6822F07006CF
:103E40000A6832435A600D4B02689A4208D0B2F1B8
:103E5000804F05D00A4B9A4202D00A4B9A4204D1B5
:103E6000496825F080031943916080F83D400021A6
:103E700080F83C10084670BD022070BD002C014047
:103E8000000400400008004010B5040003D094F87E
:103E90003D0010B107E0012010BD002084F83C0077
:103EA000204600F01EF8022084F83D00211D206805
:103EB00002F070FB012084F8460084F83E0084F88C
:103EC0003F0084F8400084F8410084F8420084F800
:103ED000430084F8440084F8450084F83D00002045
:103EE00010BD704790F83D10012901D001207047A6
:103EF000022180F83D100168CA6842F00102CA60E0
:103F000000680B49884208D0B0F1804F05D00949BC
:103F1000884202D00849884204D1816801F0070133
:103F2000062903D0016841F00101016000207047BB
:103F3000002C014000040040000800402DE9F04141
:103F40000D46040003D094F83D0018B108E00120AC
:103F5000BDE8F081002084F83C00204600F040F8E5
:103F6000022084F83D002068816844F207029143F2
:103F70008160211D206802F00DFB22689068916924
:103F8000166A2B68AF69034340F20330814341EA6C
:103F90000721A868EF6908434FF6FC418843E968A8
:103FA00040EA0720014328692F6A000140EA0730F0
:103FB000084369686D6926F0220646EA051529431B
:103FC00093602268906154F8460B0162012004F866
:103FD0001F09E0752076E0762077A0750020B7E70E
:103FE00000B585B0002100910191029103911B4B16
:103FF00002681B48C0219A4215D1C26942F00202F0
:10400000C261C26902F002020492826942F00402B3
:1040100082618069009100F0040004900120029008
:104020006946104815E0104B9A4214D1C26942F01B
:104030000402C261C26902F004020492826942F081
:10404000080282618069009100F0080004906946CE
:104050000648FEF7D9FF05B000BD0000000400408F
:10406000001002400008014000080040000C014020
:1040700070B590F83E60044690F83F5090F842309A
:1040800090F84320022021B104290ED0012E1BD12B
:1040900014E0012E18D1012B16D184F83E0084F8CB
:1040A000420001220021206820E0012D0CD1012ACC
:1040B0000AD184F83F0084F8430014E0012D03D1B5
:1040C000012B01D1012A01D0012070BD84F83E00EE
:1040D00084F83F0084F8420084F843000122002164
:1040E000206802F093FA01220421206802F08EFA7F
:1040F0002068016841F001010160002070BD704737
:104100002DE9F04104460068C66805694FF00007D4
:10411000A90713D5B10711D5F91E01610120207738
:10412000206880698007204602D0FFF7E8FF04E09E
:1041300000F0A2F8204600F045F92777680716D569
:10414000700714D521686FF0040008610220207701
:104150002068806910F4407F204602D0FFF7CFFF2F
:1041600004E000F089F8204600F02CF927772807B2
:1041700015D5300713D521686FF0080008610420B9
:1041800020772068C0698007204602D0FFF7B7FF7C
:1041900004E000F071F8204600F014F92777E806F3
:1041A00016D5F00614D521686FF0100008610820BC
:1041B00020772068C06910F4407F204602D0FFF7C6
:1041C0009EFF04E000F058F8204600F0FBF8277747
:1041D000E80708D0F00706D021686FF001000861F9
:1041E000204600F03FF9280608D5300606D521689C
:1041F0006FF0800008612046FFF710FE680608D5C2
:10420000700606D521686FF040000861204600F076
:1042100033F9A8060AD5B00608D521686FF020004A
:1042200008612046BDE8F041FFF7F9BDBDE8F08127
:1042300000B585B0002100910191029103910068C1
:10424000B0F1804F11D10A48816941F004018161C8
:104250008069694600F00400049003200090022069
:10426000019003900348FEF7CFFE05B000BD0000AB
:104270000010024000080140704770B5044690F8F5
:104280003C0000260D4601280FD0012084F83C0098
:104290006AB1042A1DD0082A2FD00C2A3FD001264B
:1042A000002084F83C00304670BD022070BD2068BC
:1042B00002F0BAF92068816941F008018161206843
:1042C000816921F004018161206881692A691143B3
:1042D00011E0206802F0D0F92068816941F40061A2
:1042E00081612068816921F4806181612068816930
:1042F0002A6941EA02218161D2E7206802F0E8F9E7
:104300002068C16941F00801C1612068C16921F0DC
:104310000401C1612068C1692A69114311E0206864
:1043200002F002FA2068C16941F40061C1612068AD
:10433000C16921F48061C1612068C1692A6941EACB
:104340000221C161ACE710B5040003D094F83D0030
:1043500010B107E0012010BD002084F83C00204689
:1043600000F01EF8022084F83D00211D206802F0B4
:1043700011F9012084F8460084F83E0084F83F00DB
:1043800084F8400084F8410084F8420084F8430037
:1043900084F8440084F8450084F83D00002010BDF6
:1043A00008B50068B0F1804F08D10548C16941F0F7
:1043B0000101C161C06900F00100009008BD00006A
:1043C000001002407047000010B50446022249B1B7
:1043D00004290ED0082913D094F84100012816D0E2
:1043E000012010BD94F83E000128F9D184F83E2048
:1043F0000FE094F83F000128F2D184F83F2008E054
:1044000094F840000128EBD184F8402001E084F8C2
:1044100041200122206802F0F9F80F492068884203
:1044200003D1426C42F4004242642068884208D0C2
:10443000B0F1804F05D00949884202D0084988422E
:1044400004D1816801F00701062903D0016841F019
:1044500001010160002010BD002C0140000400405B
:104460000008004000680349884201D1FFF786B97F
:1044700070470000002C01407047704700680349F6
:10448000884202D102490120087070470044004070
:1044900094000020F8B5016804460868CA684B69B2
:1044A00010F00F0F4FF0000559D003F0010602F491
:1044B0009077374365D0C10705D0D10503D5616C2E
:1044C00041F001016164410705D5D90703D0616C52
:1044D00041F002016164810705D5D90703D0616C01
:1044E00041F004016164010707D502F02001314366
:1044F00003D0616C41F008016164616C00293AD01D
:10450000800604D5900602D5204602F023FA2068E2
:104510004069616CC0F38010090700D460B3204685
:1045200002F0E3F920684069400621D52068143084
:1045300050E8001F21F0400140E80012002AF5D1A8
:10454000E06BA8B16D494163E06BFEF701FC002808
:1045500011D0E06B416B01B0BDE8F0400847830625
:104560000FD593060DD52046BDE8F84002F0F2B90C
:104570002046FFF783FFF8BD2046FFF77FFF656405
:10458000F8BD266B2023012E7CD1C6067AD5D6062F
:1045900078D508684868009048694FF002064006E0
:1045A00040D5E16B086840680004000CE8D0A28D9B
:1045B0008242E5D9E085886920282DD020680C301A
:1045C00050E8001F21F4807140E80012002AF5D164
:1045D0002068143050E8001F21F0010140E800126B
:1045E000002AF5D12068143050E8001F21F0400166
:1045F00040E80012002AF5D184F842302563206893
:104600000C3050E8001F21F0100140E80012002A91
:10461000F5D1E06BFEF778FB6663A08DE18D401A63
:1046200081B22AE0A08DE18D401A81B2E08D002890
:10463000A6D00029A4D022680C3252E8000F20F442
:10464000907042E80007002FF5D12068143050E840
:10465000002F22F0010240E80027002FF5D184F856
:104660004230256320680C3050E8002F22F0100201
:1046700040E80023002BF5D166632046FFF7FDFEDE
:10468000F8BDFFE705062BD5150629D594F841009E
:104690002128F5D1A068B0F5805F01D12069B0B1C3
:1046A000206A411C2162216800784860E08C401E2D
:1046B0000004000CE084E3D12068C16821F080018F
:1046C000C1602068C16841F04001C160D8E7206A3C
:1046D0000088C0F308004860206A801C2062E5E77B
:1046E0004006CDD55006CBD5CA68204622F0400200
:1046F000CA6084F8413000F0EFF8C1E7A167000814
:1047000070B5040004D094F84100002510B106E013
:10471000012070BD84F84050204600F023F824208A
:1047200084F841002068C16821F40051C16020462E
:1047300002F072F92068016921F49041016120685A
:10474000416921F02A0141612068C16841F40051AA
:10475000C1606564202084F8410084F842006563EC
:10476000002070BDF0B585B0002406460094019489
:104770000294039400682D49884254D12C48C169A1
:1047800041F40031C161C16901F4003104918169D2
:1047900041F0040181618069264D00F0040004901D
:1047A00004200090022001900320039069462846CF
:1047B000FEF72AFC0820CDE9000469462846029449
:1047C000FEF722FC1D4D1C488027C5E90004C5E901
:1047D000024720202C61C5E905402846EC61FEF720
:1047E000ADFB08B1FEF78EFAF5636E62134D124809
:1047F0004435143001C5102091C5104845F81049C2
:1048000044306C61AC61EC61FEF798FB08B1FEF7D7
:1048100079FAB5630022052126206E62FFF740F881
:104820002620FFF72FF805B0F0BD0000004400403F
:1048300000100240000801406C000240483900208E
:1048400090F84230202B01D00220704721B11AB1DC
:104850000023036302F03CB90120704770477047A2
:1048600070B5044690F84100202801D0022070BDA8
:1048700049B342B32162A284E28400206064212310
:1048800084F84130A56B114BAB62A56B104BEB620A
:10489000A56B104B2B63A36B5863256813462A1D29
:1048A000A06BFEF779FB21686FF04000086020687C
:1048B000143050E8001F41F0800140E80012002A47
:1048C000F5D1002070BD012070BD00009F68000878
:1048D000E1680008B167000800680349884202D116
:1048E0000249002088707047004400409400002076
:1048F0007047FEE701684A69D24352050FD46FF44E
:1049000080624A61002140F8301F20224273817387
:10491000026942F004020261017301207047002025
:10492000704700002DE9F84F0446006889460B9D4A
:1049300001689846174641F480610160206801686B
:1049400041F48071016000954FF0011B002259462F
:1049500020460A9B00F0E4F84FF4007A40B120684A
:104960000068C00501D5C4F840A00320BDE8F88F59
:10497000216809F0FE0008612B46284920460A9A62
:1049800000F016F9F0BB20684169806900902A4662
:1049900020460A9900F0A2F940B1206C04283AD1CF
:1049A0002068016841F40071016034E0FEB2B8F1A2
:1049B000010F09D02168380A08612A4620460A9961
:1049C00000F08CF90028E8D1206806612A462046CC
:1049D0000A9900F083F90028DFD12068016841F4CA
:1049E0008071016000950022594620460A9B00F024
:1049F00097F80028B3D1216809F0FF0040F00100CA
:104A0000086100E007E02B46044920460A9A00F0BE
:104A1000CFF80028AAD00120A8E70000020001007A
:104A20002DE9F843044600680D46DDE90897016862
:104A30009846164641F4807101604B4600224FF0C3
:104A400001112046009700F06BF848B1206800681B
:104A5000C00502D54FF4007020640320BDE8F88340
:104A6000216805F0FE0008613B464A46154920468C
:104A700000F09EF888B920684169806900903A4644
:104A80004946204600F02AF948B1206C042804D198
:104A90002068016841F4007101600120DEE7F5B291
:104AA000B8F1010F09D02168300A08613A46494639
:104AB000204600F013F90028E7D1206805610020A6
:104AC000CCE700000200010070B516460D46044612
:104AD0001EE02046FFF70EFF08B1012070BD681CE4
:104AE00016D0FEF78BFB801BA84200D885B9206842
:104AF0004069C04340070BD5002044F8300F202107
:104B00006173A073216941F0200121612073E4E702
:104B100020684069C0434007DBD4002070BD00001E
:104B20002DE9F047984617460D460446C1F307465F
:104B3000DDF820902AE000BFB8F1FF3F26D0FEF755
:104B40005DFBA0EB0901414502D8B8F1000F1DD172
:104B50002068012E16D0806925EA00000004000CB0
:104B600012D00020B84211D1002044F8300F20218B
:104B70006173A073216941F020012161207301203C
:104B8000BDE8F0874069E7E70120EBE72068012EE8
:104B90000AD0806925EA00000004000C06D000203D
:104BA000B842C9D00020EBE74069F3E70120F7E7FE
:104BB0002DE9F047984616460D4604464FF0000989
:104BC0004FF0200AC1F3074723E020684069C04343
:104BD000400515D42068016841F400710160216826
:104BE0006FF480604861C4F8309084F83DA084F888
:104BF0003E90216C41F00401216484F83C9021E056
:104C0000701C06D0FEF7FAFAA0EB0800B04203D8F9
:104C100016B1012F1FD021E02068012F15D0806927
:104C200025EA00000004000C18D000BF44F8309FB3
:104C300084F80DA084F80E90216941F020012161D3
:104C400084F80C900120BDE8F087406925EA000057
:104C50000004000CEAD12068406901E02068806906
:104C600025EA00000004000CAFD1ECE72DE9F0418B
:104C7000002590460E460446202728E04069C043A0
:104C8000C0060CD454F8301B6FF01000486144F893
:104C900010596777A577206A2062257714E0FEF720
:104CA000ADFAA0EB0800B04200D886B92068406990
:104CB000C04340060BD544F8305F6773A573206985
:104CC00040F02000206125730120BDE8F0812068BC
:104CD0004169C9434906D1D40020F6E770B51646AC
:104CE0000D4604461EE02046FFF704FE08B10120F1
:104CF00070BD681C16D0FEF781FA801BA84200D850
:104D000085B920684069C04300060BD5002044F8EF
:104D1000300F20216173A073216941F020012161CE
:104D20002073E4E720684069C0430006DBD400201C
:104D300070BD000002F0C8FADFF854900026154C50
:104D400005464FF4005801276D1C284602F0A5FACD
:104D5000208841460028484602D002F09BFA01E034
:104D600002F095FA00F03EF80128EDD1208808B154
:104D70002680E9E70748543001F02DF805489030C7
:104D800001F029F80348CC3001F025F82780DBE753
:104D900000100140B400002010B5104C0221204644
:104DA000FEF722FA88B101212046FEF71DFA70B104
:104DB0000B4C20212046FEF717FA50B11021204657
:104DC000FEF712FA38B1002010BD012010BD0220FC
:104DD00010BD032010BD042010BD0000000C0140D8
:104DE0000008014010B50D4C60782070A07860700C
:104DF000FFF7D2FFA070227861788A4208D1814201
:104E000006D1611E10B10A7822B101E000200870BD
:104E1000002010BD01220A7010BD0000910000208A
:104E20002DE9FF471546DDE90C890E4607461C466D
:104E30000E2269463B2000F037F8BDF8000040BA6A
:104E40003880BDF8020040BA3080BDF8040040BA96
:104E50002880BDF8080040BA2080BDF80A0040BA9A
:104E6000A8F80000BDF80C0040BAA9F80000BDE8A1
:104E7000FF8710B501216B2000F024F800216C2081
:104E800000F020F80721192000F01CF800211A205A
:104E900000F018F818211B2000F014F81821BDE8C4
:104EA00010401C2000F00EB80EB54FF0FF338DE817
:104EB0000E0002460123D0210148FEF769FA0EBD1B
:104EC000D437002003B583B04FF0FF33012204A98B
:104ED0008DE80E0013460246D0210248FEF786FBFD
:104EE00005B000BDD43700200D4808B5416941F038
:104EF000010141614069002200F00100009005219C
:104F00001020FEF7CDFC1020FEF7BCFC002205218E
:104F10001120FEF7C5FCBDE808401120FEF7B2BC29
:104F20000010024010B500F053FA1B4802F002FADC
:104F30001A4C194A002160631032194802F02EFA07
:104F4000154AA06334320021164802F027FA124AAB
:104F5000E06358320021144802F020FA0E4A20641F
:104F60007C320021114802F019FA0B4A6064A03229
:104F700000210F4802F012FA074AA064C43200214F
:104F80000C4802F00BFA044AE064E83200210A48B7
:104F900002F004FA206510BDE8AC0008B40000205F
:104FA0006D560008354D0008CD2A000845640008FC
:104FB000A15E00086D670008055600082DE9F0475E
:104FC00086B00024414800940194029403948169BE
:104FD00041F010018161816901F010010491816942
:104FE00041F020018161816901F020010491816912
:104FF00041F004018161816901F00401049181693A
:1050000041F0080181618069012200F00800DFF8A9
:10501000C0805503049029464046FEF7EAF8DFF8C1
:10502000B4A001224FF473415046FEF7E2F8DFF8D6
:10503000A8904FF40147002239464846FEF7D9F8B8
:10504000002228215046FEF7D4F8009503260125BA
:105050000396CDE9015469464046FDF7D5FF30205F
:105060008DE8310069464846FDF7CEFF13208DE8F4
:10507000310069465046FDF7C7FF4FF47040CDE957
:105080000005CDE9024669465046FDF7BDFFCDE972
:1050900000750227CDE9024769464846FDF7B4FF8F
:1050A0002820CDE90005CDE9024769465046FDF7C5
:1050B000ABFF3002009001AA112082E8510069463E
:1050C0005046FDF7A1FF06B0BDE8F0870010024092
:1050D00000100140000C0140000801400D4810B5CF
:1050E0000B4901600C49416000214FF4804281600E
:1050F000C0E9031241618161C1610162FEF784F878
:10510000002803D0BDE81040FDF7FCBD10BD000035
:1051100000580040D4370020A086010010B58AB0A6
:10512000002407941C2168460894FBF7A1F919484C
:105130004FF0804101602321C0E901146321C0E9DF
:1051400003148461FFF7FFF808B1FDF7DBFD079456
:1051500007A910480894FEF763FE08B1FDF7D2FDD9
:105160006020CDE9000402940022694609480494B5
:10517000FFF783F808B1FDF7C5FD0422694605482D
:10518000FFF77BF808B1FDF7BDFD0248FFF750F8C7
:105190000AB010BD2838002010B58CB02421684614
:1051A000FBF766F900241648099414490A94C0E9EB
:1051B00000144FF6FF71C0E90241046184610120CF
:1051C000CDE90004CDE902040494CDE905400F20A7
:1051D000CDE9074069460A48FEF7B0FE08B1FDF781
:1051E00091FD099409A906480A94FEF719FE0028C2
:1051F00001D0FDF787FD0CB010BD00000004004099
:105200007038002010B58CB024216846FBF730F9C7
:1052100000241648099414490A94C0E900144FF672
:10522000FF71C0E90241046184610120CDE90004FD
:105230000F21CDE902040491CDE9054007946946A8
:105240000A480894FEF77AFE08B1FDF75BFD099461
:1052500009A906480A94FEF7E3FD002801D0FDF7EE
:1052600051FD0CB010BD000000080040B83800200F
:105270000C4810B50A4901604FF4165141600021F5
:1052800081600C22C160C0E904128161C161FFF735
:1052900037FA002803D0BDE81040FDF733BD10BD3C
:1052A0000044004000390020FEE7000010B5002156
:1052B0000448FFF789F8BDE8104004210148FFF7D2
:1052C00083B80000283800202DE9F041040011487F
:1052D000114E4FF480554FF400574FF001020CD49B
:1052E00029460546FDF785FF002239462846FDF789
:1052F00080FF30684463BDE8F08139460746FDF71A
:1053000078FF002229463846FDF773FF3168604276
:105310004863F0E7000C0140283800202DE9F041F7
:1053200004001148114E4FF480454FF400474FF0F0
:1053300000020CD429460546FDF75BFF01223946E1
:105340002846FDF756FF30688463BDE8F081394692
:105350000746FDF74EFF012229463846FDF749FF73
:10536000316860428863F0E7000C01402838002073
:10537000FEE708B500200090401C00906428FBD395
:1053800008BD10B5002000F0F9F8E22000F0CCF8DC
:10539000BDE81040012000F0F1B810B5002000F089
:1053A000EDF8E12000F0C0F8BDE81040012000F069
:1053B000E5B810B5002000F0D9F8012000F0DEF8C3
:1053C000002000F0EBF8BDE81040002000F0DEB84F
:1053D00010B5FFF7EEFF0821002000F0E7F83F21AD
:1053E000012000F0E3F80121022000F0DFF80321A2
:1053F000084600F0DBF80321042000F0D7F8022172
:10540000052000F0D3F80E21062000F0CFF820216F
:10541000112000F0CBF8052207490A2000F0D8F847
:10542000FFF7BBFFFFF7ADFF7021072000F0BEF8CC
:10543000BDE8104000F064B8AD0000201021014824
:10544000FDF7D2BE000C014010B50446002000F06C
:1054500095F8204600F068F8FF2000F065F8044653
:10546000012000F08BF8204610BD70B506460D46B1
:10547000002000F083F8612000F056F8002405E0D9
:10548000FF2000F051F83055641CE4B2AC42F7D371
:10549000BDE87040012000F071B810B5002000F0A8
:1054A0006DF8FF2000F040F80446012000F066F897
:1054B000204610BD10B5FFF7F0FF04460020FFF7AF
:1054C000C3FF800701D4032412E0C4F301100328B2
:1054D0000DD060060FD5012420210848FFF7C5FF35
:1054E0004021072000F062F8FFF74BFF04E00224A0
:1054F000FFF76EFF00E00024204610BDB437002007
:1055000010B5002000F032F80020FFF79DFFFF28C3
:1055100009D040F00301002000F048F8BDE8104039
:10552000012000F023B810BD70B504460025200608
:1055300001D5012000E0002000F028F86006040EEC
:10554000012000F02BF8FFF714FFFFF777FF08B1F9
:1055500044F00104002000F021F8FFF70AFF6D1C61
:10556000EDB2082DE3D3204670BD000002464FF493
:1055700080710148FDF73DBE0008014002464FF42E
:1055800000410148FDF735BE0008014002462021D8
:105590000148FDF72EBE0000000C01400246082124
:1055A0000148FDF726BE0000000C014070B504461E
:1055B0000D460020FFF7E2FF44F02000FFF7B4FFA4
:1055C0002846FFF7B1FFBDE870400120FFF7D6BFC6
:1055D00070B5044615460E460020FFF7CFFF44F095
:1055E0002000FFF7A1FF002404E0305DFFF79CFFDF
:1055F000641CE4B2AC42F8D3BDE870400120FFF770
:10560000BDBF000001F060FE04463234204601F0C8
:1056100044FEFFF74FFF0128F7D1104890F90160D1
:1056200090F9025002F0B2FB304603F051FD002227
:105630000B4B03F0B9FB03F0C9FA0A49086028468E
:1056400003F046FD0022084B03F0AEFB03F0BEFA68
:1056500004493C31086002F0B9FBD6E7B4370020BA
:105660000000444044010020000039401CB501F016
:105670002BFE7B4D0746A5F1540605F13C0805F1CC
:1056800078093237384601F008FE00F023F900218E
:1056900074A30622084600F0F8F9286903F096FF83
:1056A000CDE9000171A306220821002000F0EDF9E8
:1056B000686903F08BFFCDE900016FA3062210217A
:1056C000002000F0E2F9A86903F080FFCDE90001B5
:1056D0006CA306221821002000F0D7F9286803F0F7
:1056E00075FFCDE900016AA306222021002000F009
:1056F000CCF9306B03F06AFFCDE9000167A3062205
:105700002821002000F0C1F9E86803F05FFFCDE92F
:10571000000165A306223021002000F0B6F965A340
:1057200006220021322000F0B0F94446D8F81000DB
:1057300003F04CFFCDE9000160A3062208213220CE
:1057400000F0A3F9606903F041FFCDE900015BA31C
:1057500006221021322000F098F9A06903F036FFEC
:10576000CDE9000155A306221821322000F08DF961
:10577000206803F02BFFCDE9000150A30622202171
:10578000322000F082F9B06A03F020FFCDE9000179
:105790004AA306222821322000F077F9E06803F0BE
:1057A00015FFCDE9000145A306223021322000F08B
:1057B0006CF944A306220021582000F066F94C46FB
:1057C000D9F8100003F002FFCDE900013BA3062247
:1057D0000821582000F059F9606903F0F7FECDE97F
:1057E000000136A306221021582000F04EF9A069CE
:1057F00003F0ECFECDE9000130A306221821582069
:1058000000F043F9206803F0E1FECDE900012BA38D
:1058100006222021582000F038F9F06A03F0D6FE65
:10582000CDE9000125A306222821582000F02DF9FA
:10583000E06803F0CBFECDE9000120A30622302171
:10584000582000F022F9B6F90A0000901FA30622A2
:105850003821002000F019F900F070FA11E700007B
:1058600008010020416E676C65000000503A253049
:10587000352E326600000000493A2530352E32665A
:1058800000000000443A2530352E3266000000004A
:10589000543A2530352E326600000000413A25305A
:1058A000352E3266000000004F3A2530352E326624
:1058B0000000000053706565640000002530352E3F
:1058C000326600005475726E0000000047593A2598
:1058D0006400000010B50021074C0A46002004EBCC
:1058E000C1131A54401CC0B28028FAD3491CC9B253
:1058F0000829F3D310BD0000942E0020F0B50B440E
:1059000024E0044685181DE07F2C19D8002917DBF8
:105910003F2915DCCE1701EB56764FEAE60C0D4F0A
:1059200026F0070607EBCC172744A1EB060E97F8E5
:1059300000C0012606FA0EF62CEA060C87F800C015
:10594000641C24B2A542DFDC491C09B28B42D8DCBE
:10595000F0BD0000942E002010B500204FF47A72A4
:105960000021491C9142FCD3401C9042F8D30120F5
:1059700000F0F8F9BDE81040012000F0FBB970B567
:1059800000240646802525FA04F0304000D001208E
:1059900000F0F0F9012000F0E5F9002000F0E2F954
:1059A000641CE4B2082CEED3012000F0DBF9BDE862
:1059B0007040002000F0D6B910B5012000F0DAF9EF
:1059C000012000F0CFF9002000F0D4F9BDE810402C
:1059D000002000F0C7B910B5002000F0CBF901207D
:1059E00000F0C0F9BDE81040012000F0C3B910B5C7
:1059F000FFF7B2FFAE2000F0C5F9D52000F0C2F9E4
:105A0000802000F0BFF9A82000F0BCF93F2000F092
:105A1000B9F9D32000F0B6F9002000F0B3F9402026
:105A200000F0B0F9A12000F0ADF9C82000F0AAF90B
:105A3000DA2000F0A7F9122000F0A4F9812000F08C
:105A4000A1F9CF2000F09EF9D92000F09BF9F120B8
:105A500000F098F9DB2000F095F9302000F092F981
:105A6000A42000F08FF9A62000F08CF98D2000F022
:105A700089F9142000F086F9AF2000F083F9FFF7D0
:105A800029FFBDE8104000F059B90FB470B5C0B09F
:105A900014460D46064648AA68464799FAF756FC4A
:105AA00023466A462946304600F092F840B070BC62
:105AB0005DF814FB10B50C4640F0B00000F062F940
:105AC000102040EA141000F05DF904F00F00BDE86A
:105AD000104000F057B9000008B5082B0DD0062B78
